:020000040800F2
:10000000D8160020D9000008292F0008392300083D
:1000100000000000000000000000000000000000E0
:10002000000000000000000000000000B5380008DB
:1000300000000000000000002B2F0008B738000867
:10004000EB000008EB000008EB000008EB000008E4
:10005000EB000008EB000008EB000008EB000008D4
:10006000EB000008EB000008890400080000000015
:10007000EB000008EB000008EB000008EB000008B4
:1000800000000000EB00000800000000EB0000088A
:1000900000000000EB000008EB000008EB00000887
:1000A000EB000008EB000008EB0000083D3C0008F6
:1000B000EB000008EB000008EB000008EB00000874
:1000C0000448854600F050F800480047DF3E00082D
:1000D000C046C046D8160020044880470448004760
:1000E000FEE7FEE7FEE7FEE7FEE7FEE7C1380008B1
:1000F000C100000830B50B46014600202022012433
:1001000009E00D46D5409D4205D31D469540491B4B
:100110002546954040191546521E002DF1DC30BD94
:1001200003460B439B0703D009E008C9121F08C010
:10013000042AFAD203E00B780370401C491C521EBB
:10014000F9D27047D2B201E00270401C491EFBD2C6
:1001500070470022F6E710B513460A4604461946D2
:10016000FFF7F0FF204610BD064C0125064E05E0C6
:10017000E36807CC2B430C3C98471034B442F7D3C8
:10018000FFF7A2FF184500083845000800BFFEE74A
:1001900010B586B0142101A8FFF7DBFF00BF2C4883
:1001A000406B012108432A4948630846406BC00759
:1001B000C00F009000BF00BF00BF0846406B022187
:1001C0000843234948630846406B022108400090D9
:1001D00000BF00BF00BF1E48406B202108431C49E0
:1001E00048630846406B20210840009000BF00BFD4
:1001F000112002900120039002200490002422E0AC
:10020000200114494018808801902101114A50585A
:1002100001A900F055FB20010E494018808901908A
:1002200021010C4A8918886801A900F049FB2101C5
:10023000084A881800F018F82101064A881800F0CA
:100240000BF8601CC4B2032CDAD306B010BD00005A
:1002500000100240843F000810B50446A189012225
:10026000A06800F010FC10BD10B50446A188012262
:10027000206800F008FC10BD3B4802F005FD02F0CC
:10028000E7FA02F0B1FC02F0CBFC0020374908701D
:100290003749086037490880FF2037490870002037
:1002A0003649086036490870012036490870002038
:1002B0003549086002F008FC0020324908707D20B2
:1002C000400100F0E7FA01202D4908702D4908701F
:1002D00048E0284804882449487C02F0EBFD28487F
:1002E0000078042806D123480088844202D00020E8
:1002F00002F042FD02F0F0FA002801D002F032FBD9
:100300001F480078012802D102F0DEFB2AE01C48D9
:10031000007803280CD11449087C02F021FD054621
:1003200015480078854202D001201649087000BFA8
:1003300013480078022808D10B4840690F49096822
:10034000884202D0002002F05BFD0E4800780028B1
:1003500004D002F0B9FB00200A490870052000F023
:1003600099FA00BFB5E700000C110020180000202A
:100370001C00002020000020360000203800002053
:1003800004000020050000200800002010B50F48E0
:100390000F490860FF200530486000210C4881604B
:1003A00007210902C1600021016141610121490267
:1003B00081610021C161016241620721816201F016
:1003C000D1F9002801D0FFF7E1FE10BD0038004050
:1003D000B400002000B591B0302105A8FFF7B9FEA8
:1003E0000020019002900390049002200590C0012B
:1003F0000A9000200B901348008AC004C00C012111
:10040000C90308430C9002200E9000210F91042193
:10041000109105A800F04EFD002801D0FFF7B6FEB0
:1004200007200190022002900020039004900221F6
:1004300001A800F0BDFB002801D0FFF7A7FE11B016
:1004400000BD0000000FFF1F10B50D480D490860EA
:10045000E1204002486000210A488160C1600161DA
:100460000C21416100218161C161002005490862C0
:10047000084601F0C8FE002801D0FFF787FE10BD36
:10048000003801406800002010B5034800F0E8F88B
:10049000024800F0E5F810BDCC1100201012002039
:1004A00030B50124056CAC40C56B6C6004686360BA
:1004B0004468102C04D10468A2600468E16003E081
:1004C0000468A1600468E26030BD0146002221207A
:1004D000405C022808D00420886300BF002320204D
:1004E000435400BF01207047086800680E239843FA
:1004F0000B68186008680068400840000B681860C6
:1005000001200B6C9840CB6B586001232120435491
:1005100000BF00232020435400BF1046E3E7000043
:1005200070B5044600252120005D022803D0042078
:10053000A06301252BE0206800680E218843216814
:100540000860206800684008400021680860114980
:100550002068884201D1012008E00E49143120684A
:10056000884201D1102001E0FF20013009490839FB
:10057000486001212120015500BF002120200155A4
:1005800000BF606B002802D02046616B8847284678
:1005900070BD000008000240F8B504460D463F2734
:1005A000114A2168881A1421FFF7A4FD064600BFEE
:1005B0000E480068012108430C490860084600689D
:1005C000C007C00F009000BF00BF09488068B10796
:1005D000CA0E394691408843B107CA0E2946914058
:1005E000084303498860F8BD0800024040100240FB
:1005F0000000014010B50446002C01D1012010BDBF
:1006000020680068400840002168086000202168D8
:10061000086021684860216888602168C8600F4AC6
:100620002168881A1421FFF765FD800020640B48BB
:100630000838E0630120216C8840E16B48600020AD
:10064000A062E06220636063A06300212120015565
:1006500000BF2020015500BF0020D0E70800024065
:1006600070B50446E06B0568206806680420216CBC
:1006700088402840002828D004203040002824D07A
:100680002068006820210840002805D12068006803
:1006900004218843216808603A492068884201D1D2
:1006A000042008E0374914312068884201D14020F5
:1006B00001E001208002334908394860E06A0028DF
:1006C0005FD02046E16A88475BE00220216C8840C9
:1006D0002840002830D00220304000282CD020684C
:1006E000006820210840002808D1206800680A21FD
:1006F0008843216808600121212001552149206893
:10070000884201D1022008E01E4914312068884245
:1007100001D1202001E0012040021A490839486037
:1007200000BF00212020015500BFA06A002828D06A
:100730002046A16A884724E00820216C8840284090
:1007400000281ED00820304000281AD020680068F9
:100750000E218843216808600120216C8840E16BEC
:1007600048600120A06301212120015500BF002124
:100770002020015500BF206B002802D02046216BAD
:10078000884770BD0800024070B504460025002C63
:1007900001D1012070BD164A2168881A1421FFF783
:1007A000A9FC8000206412480838E063022121205F
:1007B0000155206805680F480540A1686068084336
:1007C000E16808432169084361690843A169084356
:1007D000E16908430543206805600020A06301210A
:1007E000212001550021202001550020D2E70000E2
:1007F000080002400FC0FFFFF8B504460D4616463C
:100800001F460020009000BF2020005D012801D17C
:100810000220F8BD01212020015500BF2120005DEC
:1008200001282DD10221212001550020A06320683C
:10083000006840084000216808603B46324629466F
:100840002046FFF72DFEE06A002806D020680068E9
:100850000E210843216808600BE02068006804212D
:10086000884321680860206800680A2108432168DD
:10087000086020680068012108432168086006E0DC
:1008800000BF00212020015500BF022000900098E9
:10089000BFE7000070B5044600F0FCF806462546A8
:1008A000681C002802D0054800682D1800BF00F021
:1008B000F1F8801BA842FAD370BD0000640000204C
:1008C00070B503460022CBE0012696400C68344008
:1008D000002C71D04D68022D02D04D68122D15D11B
:1008E000D508AE001D462035A8595507EE0E0F2538
:1008F000B5400646AE4330465607F60E0D69B54084
:100900002843D508AD001E462036705118685600A1
:100910000325B5400646AE4330460D79AD07AD0F11
:100920005600B540284318604D68012D08D04D6829
:10093000022D05D04D68112D02D04D68122D18D111
:10094000986856000325B5400646AE43304656002B
:10095000CD68B54028439860586801259540064603
:10096000AE43304610264D6835402D09954028434A
:100970005860D86856000325B5400646AE43304659
:1009800056008D68B5402843D860012636074D686B
:100990003540B54263D1354D9608B600A859950744
:1009A000EE0E0F25B5400646AE43304605252D0711
:1009B000AB4202D1002506E051E02D4DAB4201D102
:1009C000012500E002259607F60EB5402843274D85
:1009D0009608B600A851254D203528680546A54340
:1009E0002846012636044D683540B54202D10546F9
:1009F000254328461D4D2035286068680546A543D7
:100A00002846012676044D683540B54202D1054698
:100A100025432846154D20356860144D603D2868F3
:100A20000546A5432846012636054D683540B542A2
:100A300002D10546254328460C4D603D2860686874
:100A40000546A5432846012676054D683540B54242
:100A500002D1054625432846044D603D6860521C7E
:100A60000D68D540002D00D02EE770BD6018024003
:100A700000040050024613690B40002B01D00120F6
:100A800000E000207047002A01D0816100E081620F
:100A90007047000001480068704700005C000020BB
:100AA0000348006803490968401801490860704715
:100AB0005C0000206400002010B50024032000F03A
:100AC00009F8002801D0012401E000F033F82046A5
:100AD00010BD0000F8B50446002513480068002842
:100AE0001ED0114801687D20C000FFF703FB0746B8
:100AF00039460E480068FFF7FDFA064601F090FA05
:100B000000280BD1042C07D200222146401E00F001
:100B100045F80748046004E0012502E0012500E0F3
:100B200001252846F8BD00006400002000000020D8
:100B30006000002008B500BF0E480068012108438E
:100B40000C49086008460068C007C00F009000BF4D
:100B500000BF00BF07484038C06B890508430549FE
:100B60004039C8630846C06B09040840009000BFC4
:100B700000BF08BD401002400146002909DB00BF4C
:100B800000BFCB06DB0E01229A40034B1A6000BF68
:100B900000BF00BF7047000000E100E070B50446F0
:100BA0000D4616462946204603F04EF970BD00005A
:100BB00070B504460D46002C01D1012070BD6B4874
:100BC00000688007800FA84218D268480068800833
:100BD0008000284365490860FFF75CFF064607E090
:100BE000FFF758FF801B6249884201D90320E5E7DF
:100BF0005E4800688007800FA842F1D1022120687A
:100C00000840022815D1042120680840042807D193
:100C1000584880680721090388434018554988606F
:100C2000544880680F2109028843A168084351494C
:100C300088602078C007C00F002854D06068012861
:100C400008D14C48006801214904084000282ED1F1
:100C50000120B3E76068002808D1464800680121F8
:100C600089020840002822D10120A7E760680228F5
:100C700008D140480068012149060840002816D1E3
:100C800001209BE76068042808D13A484030C069D9
:100C90000221084000280AD101208FE73548403062
:100CA000006A02210840002801D1012086E731486E
:100CB0008068C008C000616808432E498860FFF75B
:100CC000E9FE064607E0FFF7E5FE801B284988425B
:100CD00001D9032072E727488068382108406168FD
:100CE000C9008842EFD1214800688007800FA842E0
:100CF00018D91E4800688008800028431B490860F6
:100D0000FFF7C8FE064607E0FFF7C4FE801B184940
:100D1000884201D9032051E7144800688007800FFA
:100D2000A842F1D1042120680840042808D11148C4
:100D30008068072109038843E16808430D498860FA
:100D400000F03AF80B4989680F2212021140090A93
:100D50008900094A515CC906C90EC84007490860A4
:100D600007480068FFF7B6FE28E7000000200240B1
:100D70008813000000100240043F0008000000201B
:100D8000600000200148006870470000000000205B
:100D900000B5FFF7F7FF06498968072212031140E3
:100DA000090B8900034A515CC906C90EC84000BD41
:100DB00000100240443F0008F0B58BB014223A49BD
:100DC00005A8FFF7ADF93848143001460EC9C068D0
:100DD00001AC0EC4049035488068382108400028D2
:100DE00018D13248006809020840C10A0120884031
:100DF0000A902E484068072149030840450B042DFE
:100E000000D90025A90005AA50580A99FFF772F9E0
:100E1000044645E02548806838210840082801D16B
:100E2000234C3DE02148806838210840102825D116
:100E30001E48C068C707FF0F1C48C0680C21084047
:100E40008008800001A90E58002F05D0012F11D174
:100E500017483446444310E01448406807214903CA
:100E60000840450B042D00D90025A80005A90C5801
:100E7000744302E0059C744300BF11E00B48806896
:100E800038210840202801D1840209E00748806801
:100E900038210840182802D10124E40300E000248E
:100EA00020460BB0F0BD0000F444000800100240E2
:100EB00000366E01F0B587B00446F94903C90591C3
:100EC0000490F749083103C903910290002C02D124
:100ED000012007B0F0BD2078C007C00F00287DD0EA
:100EE000F048866838210E40C068C707FF0F102EF3
:100EF00001D1012F01D0082E0BD1EA480068012151
:100F0000490408400028EAD06068002866D1012022
:100F1000DFE7606800282FD000BFE24800680121A9
:100F200009048843DF4908600846006801218904F4
:100F30008843DC49086000BFFFF7ACFD054606E0CA
:100F4000FFF7A8FD401BC82801D90320C1E7D548F9
:100F500000680121490408400128F1D0A068002858
:100F600008D0D048006980088000A1680843CD49B6
:100F7000086101E00120ACE700BF012109046068BD
:100F8000884205D1C74800680843C649086021E087
:100F900005210904606888420ED1C2480068012119
:100FA00089040843BF490860084600680121090414
:100FB0000843BC4908600DE0BA48006801210904F3
:100FC0008843B849086008460068012189048843BD
:100FD000B449086000BF6068002800E025E012D036
:100FE000FFF758FD054606E0FFF754FD401BC828F3
:100FF00001D903206DE7AB4800680121490408408E
:101000000028F1D011E0FFF745FD054606E0FFF7A7
:1010100041FD401BC82801D903205AE7A1480068B8
:101020000121490408400028F1D10221206808402C
:10103000022874D19B4880683821084006469948A8
:10104000C068C707FF0F102E01D1002F01D0002E5E
:1010500048D194480068012189020840002804D042
:101060006069002801D1012033E78E484068000CF8
:101070000004E16908438B494860FFF70BFD054612
:1010800006E0FFF707FD401B022801D9032020E7F7
:10109000844800680121890208400028F1D0002E10
:1010A00018D1804800680721C9028843A169084314
:1010B0007C490860FFF780FE7A4989680F22120296
:1010C0001140090A8900784A515CC906C90EC84016
:1010D0007649086076480068FFF7FCFC002848D095
:1010E0000120F6E6606900282AD06E4800680721D2
:1010F000C9028843A16908436A4908600846006834
:101100008915084367490860FFF7C4FC054607E0F6
:10111000FFF7C0FC401B022802D90320D9E628E0D3
:10112000604800680121890208400028F0D05D482D
:101130004068000C0004E16908435A49486018E01F
:1011400058480068FF210131884356490860FFF77D
:10115000A1FC054606E0FFF79DFC401B022801D9D3
:101160000320B6E64F4800680121890208400028A4
:10117000F1D1082120680840082849D149488068F1
:101180003821084018280BD146484030006A022117
:10119000084000283CD0206A002839D1012098E678
:1011A000206A00281AD03F484030006A01210843D5
:1011B0003C4940310862FFF76DFC054606E0FFF749
:1011C00069FC401B022801D9032082E635484030E3
:1011D000006A022108400028F1D019E0314840306F
:1011E000006A400840002F4940310862FFF752FC76
:1011F000054606E0FFF74EFC401B022801D90320FC
:1012000067E628484030006A022108400028F1D1F2
:10121000042120680840042872D100200190214850
:1012200080683821084020280BD11E484030C06912
:101230000221084000287BD0E068002878D10120F6
:1012400047E61848C06B010F01208843002810D0E2
:1012500000BF1448C06B0121090708431149C86346
:101260000846C06B09040840009000BF00BF012081
:10127000019010480068FF2101310840002822D168
:101280000C48006808430B490860FFF703FC05465B
:1012900012E0FFF7FFFB401B02280DD9032018E6E0
:1012A000E444000800100240043F00080000002051
:1012B0006000002000700040A8480068FF21013154
:1012C00008400028E5D0E06800283DD000BFA448D1
:1012D000C06940084000A249C8610846C0690421AD
:1012E00088439F49C86100BFFFF7D4FB054608E06B
:1012F000FFF7D0FB401B9B49884202D90320E8E559
:101300007EE09748C069022108400128F0D00321FF
:1013100009042069084000280BD191484038006931
:1013200088430121490441188D48403801610BE090
:1013300065E08B484038006903210904884321692E
:10134000084387494039086100BFE068012806D199
:101350008348C069012108438149C8611AE0E068F7
:1013600005280CD17E48C069042108437C49C86126
:101370000846C069012108437949C8610AE07848F4
:10138000C069410849007648C161C06904218843A9
:101390007349C86100BFE068002812D0FFF77AFBEC
:1013A000054607E0FFF776FB401B6E49884201D9EE
:1013B00003208EE56A48C069022108400028F1D068
:1013C00011E0FFF767FB054607E0FFF763FB411BF2
:1013D0006448814201D903207BE56148C06902214C
:1013E00008400028F1D10198012808D15C48403814
:1013F000C06B01210907884359494039C86300BFC0
:10140000606A002874D05648403880683821084007
:1014100010286ED0606A02286DD1514840380068AB
:101420000121090688434E4940390860FFF732FB25
:10143000054606E0FFF72EFB401B022801D90320DA
:1014400047E5474840380068012149060840002820
:10145000F0D1E06A80080690A06A01280DD10698B4
:10146000800004A908584049884211D80698800095
:1014700002A908583C4988420AD3A06A002809D129
:1014800001F054FD0699890004AA5158884201D2FE
:1014900001201EE532484038C06840084000A16A7B
:1014A00008432F494039C8600846C0680C2188436A
:1014B000E16A08432A494039C860084600680121AA
:1014C00009060843264940390860FFF7E3FA054654
:1014D00006E0FFF7DFFA401B022801D90320F8E4F9
:1014E0001F48403800680121490608400028F0D014
:1014F00031E022E0FFE71A48403800680121090680
:1015000088431749403908600846C06840084000D1
:10151000C860FFF7BFFA054606E0FFF7BBFA401BBD
:10152000022801D90320D4E40D4840380068012185
:10153000490608400028F0D10DE0606A012800D17A
:10154000C7E407484038C768F907C90FA06A814255
:1015500001D00120BDE40020BBE400000070004089
:10156000401002408813000000366E01FEB50446AC
:101570000025182170480068FEF7BCFD06467D2155
:10158000C900FEF7B7FD642148430190019802901D
:1015900020684068202188432168486020684068AE
:1015A00080210840002814D06448606400BF02987D
:1015B000002804D1606D40210843606506E0029870
:1015C000401E02905120005D0728F0D100BF019815
:1015D00002902068406840210840002814D05848F4
:1015E000206400BF0298002804D1606D40210843A8
:1015F000606506E00298401E02905120005D0728B9
:10160000F0D100BF01980290206840680221084094
:10161000002833D0A06C002830D00020A16C486393
:10162000A06CFEF752FF002801D0402060652068C2
:1016300040680221884321684860FFF72BFA06467C
:1016400032466421204601F0B6FD002801D040203A
:101650006065206800684021884321680860FFF7C2
:1016600019FA06466423002203214902009020460D
:1016700001F0D6FD002801D0402060652068406858
:10168000C007C00F002835D0E06C002832D0002001
:10169000E16C4863E06CFEF718FF002801D04020A1
:1016A0006065206800684021884321680860FFF772
:1016B000F1F906466423002280210090204601F0C3
:1016C0002DFE002801D040206065FFF7E3F90646B3
:1016D00064230022032149020090204601F0A0FD6E
:1016E000002801D040206065206840684008400024
:1016F00021684860002060876086606D402801D1C5
:10170000012501E00020606500BF002000902068F6
:10171000C068009020688068009000BF00BF00BFD4
:101720000020009020688068009000BF00BF012169
:10173000512001552846FEBD00000020ED2F000875
:10174000492F00080449884204D10121034A11703D
:10175000034A117070470000B400002059000020B7
:101760005800002010B50446002C01D1012010BD06
:10177000FF2105316068884200D101E00021E1616C
:10178000002161625120005D002804D150200155E4
:10179000204600F051F802215120015520680068D0
:1017A00040218843216808600F210902E0688842CF
:1017B00006D007210902E068884201D00021616259
:1017C000FF2105316068084021229202A168114082
:1017D00008430222216911400843217DC907C90F2E
:1017E00008431202A169114008433822E1691140FF
:1017F00008430122D202E168114008438022216A95
:10180000114008439201616A114008432168086051
:10181000A069000C04210840216848602068C06964
:10182000911088432168C861002060650121512022
:10183000015500209BE7000010B586B00446142136
:1018400001A8FEF786FC9E49206888427ED100BF31
:101850009C480068891408439A4908600846006853
:1018600089140840009000BF00BF00BF9548403871
:10187000806B012108439349403988630846806B97
:10188000C007C00F009000BF00BF00BF0846406BFC
:10189000022108438B49403948630846406B0221C6
:1018A0000840009000BF00BF012240218648FFF79A
:1018B000EAF83820019002200290002003900220D4
:1018C00004900020059001A97F48FEF7F9FF402011
:1018D00001900120029003900220049001A97A480F
:1018E000FEF7EEFF79487A49086010204860002131
:1018F000774881608021C16000210161416181617F
:1019000001214903C161FEF775FE7148FEF73CFFF6
:1019100001216F48FEF740FE00BF6D48A06444629D
:1019200000BF6A4814306B490860002048600021FD
:10193000684881608021C16000210161416181614D
:1019400001214903C161FEF755FE00E014E0614842
:10195000FEF71AFF02215F48FEF71EFE00BF5D483A
:10196000E064446200BF002201210A20FFF716F95B
:101970000A20FFF701F9A1E0574920688842FAD10F
:1019800000BF50484038C06B091408434D494039E6
:10199000C8630846C06B012189030840009000BF5E
:1019A00000BF00BF47484038806B012108434549CC
:1019B000403988630846806BC007C00F009000BFA5
:1019C00000BF00BF0846406B012108433D49403934
:1019D00048630846406BC007C00F009000BF00BFBF
:1019E0000122D10305200007FFF74DF80022012155
:1019F000C90205200007FFF746F80022012149022D
:101A000005200007FFF73FF801221103052000071A
:101A1000FFF739F801200190022002900020039086
:101A2000022004900020059001A905200007FEF780
:101A300047FF0120800201900020059001A90520A8
:101A40000007FEF73DFF45204002019001210903F8
:101A50000198084301900120029000200390022089
:101A6000049001A905200007FEF72AFF174814304B
:101A700018490860102048600021164881608021C4
:101A8000C160002101614161816101214903C1619E
:101A9000FEF7B0FD0F48FEF777FE03210D48FEF775
:101AA0007BFD00BF0B48A064446200BF00220121FF
:101AB0000A20FFF773F80A20FFF75EF806B010BDA2
:101AC0000030014040100240000400501C00024061
:101AD000CC1100201012002000380040FFB583B068
:101AE000044616461D460020029000BF5020005DAF
:101AF000012802D1022007B0F0BD0121502001557C
:101B000000BFFEF7C7FF074601965120005D012880
:101B100002D002200290B9E00498002801D0002EE3
:101B200002D101200290B1E0032151200155002093
:101B300060650498E06226866686002060632087E0
:101B40006087606420640121C903A06888420CD1C9
:101B50002068006840218843216808602068006888
:101B6000012189030843216808602068006840213A
:101B70000840402804D020680068084321680860B5
:101B800007210902E068884232D96068002802D043
:101B90000198012809D1E06A00882168C860E06ADC
:101BA000801CE062608E401E60861DE020688068B8
:101BB0000221084002280AD1E06A00882168C86032
:101BC000E06A801CE062608E401E60860CE0FEF7DA
:101BD00061FFC01BA84202D3681C002801D1002D60
:101BE00002D10320029051E0608E0028DED131E066
:101BF0006068002802D00198012809D1E06A0078C5
:101C000021680873E06A401CE062608E401E6086B6
:101C10001DE0206880680221084002280AD1E06A9D
:101C2000007821680873E06A401CE062608E401E04
:101C300060860CE0FEF72EFFC01BA84202D3681C92
:101C4000002801D1002D02D1032002901EE0608EF9
:101C50000028DED13A462946204601F0ACFA002899
:101C600001D020206065A068002809D100BF009045
:101C70002068C068009020688068009000BF00BFA6
:101C8000606D002801D00120029000BF0121512089
:101C9000015500BF00215020015500BF02982AE7DE
:101CA000FFB585B004461D460E9E01200190002020
:101CB000009000BF5020005D012802D1022009B031
:101CC000F0BD01215020015500BFFEF7E3FE07469D
:101CD0005120005D029060680390049502980128ED
:101CE0000DD0FF2105310398884205D1A068002856
:101CF00002D10298042802D002200090DBE006986E
:101D0000002804D00798002801D0002D02D101201E
:101D10000090D0E05120005D042802D00521512020
:101D200001550020606507986063658725870698E0
:101D3000E062658625860020206460642068006873
:101D400040210840402804D02068006808432168EA
:101D5000086007210902E06888424FD960680028BE
:101D600002D00498012809D1E06A00882168C8607F
:101D7000E06A801CE062608E401E608637E020686A
:101D8000806802210840022811D1608E00280ED000
:101D9000019801280BD1E06A00882168C860E06AD8
:101DA000801CE062608E401E6086002001902068EA
:101DB0008068C007C00F00280ED0608F00280BD0AD
:101DC0002068C068616B0880606B801C6063608FF6
:101DD000401E608701200190FEF75CFEC01BB042F0
:101DE00005D3701C002802D00320009063E0608EB1
:101DF0000028C4D1608F0028C1D150E0606800285D
:101E000002D00498012809D1E06A0078216808739B
:101E1000E06A401CE062608E401E608639E0206807
:101E2000806802210840022811D1608E00280ED05F
:101E3000019801280BD1E06A007821680873E06AF4
:101E4000401CE062608E401E608600200190206889
:101E50008068C007C00F00280ED0608F00280BD00C
:101E60002068007B616B0870606B401C6063608F52
:101E7000401E608701200190FEF70CFEC01BB0429F
:101E800002D3701C002801D1002E02D10320009043
:101E900011E0608E0028C2D1608F0028BFD13A4681
:101EA0003146204601F087F9002803D00120009038
:101EB0002020606500BF01215120015500BF002195
:101EC0005020015500BF0098F9E60000F8B504461F
:101ED0000E4615460020009000BF5020005D0128EE
:101EE00001D10220F8BD01215020015500BF512031
:101EF000005D012802D00220009075E0002E01D084
:101F0000002D02D1012000906EE0032151200155E7
:101F100000206065E66225866586606360642064F3
:101F2000208760870121C903A06888420CD12068FE
:101F3000006840218843216808602068006801210A
:101F400089030843216808602B48A16CC8622B48AC
:101F5000A16C88622A48A16C08630020A16C4863C8
:101F600007210902E068884212D8A06C406901216B
:101F7000890288420CD1608EC007C00F002803D1AF
:101F8000608E4010608603E0608E4010401C6086CA
:101F9000638E27683A460C32E16AA06CFEF72CFC8F
:101FA000002809D0606D1021084360650120009071
:101FB00001215120015517E02068006840210840A8
:101FC000402804D020680068084321680860206821
:101FD0004068202108432168486020684068022149
:101FE00008432168486000BF00BF00215020015510
:101FF00000BF009876E7000029310008373100085B
:10200000013100080349884202D10121024A1170BE
:1020100070470000B4000020580000207047000006
:1020200070B504462546681E0949884201D9012039
:102030000CE0681E074948610321081F01F004FFF6
:1020400000200449886107200861002070BD00005D
:10205000FFFFFF0000E000E070470000FEB504460F
:10206000206805682068C6682068476900200290DB
:1020700001902807000F0290029800280BD1202021
:102080002840002807D020203040002803D02046D8
:1020900001F083FCFEBD0298002872D0F807C00F43
:1020A000002804D1FF2021303040002878D0E807F4
:1020B000C00F002808D0FF2001303040002803D096
:1020C000A06C01210843A06404202840002807D008
:1020D000F807C00F002803D0A06C02210843A064B9
:1020E00002202840002807D0F807C00F002803D09E
:1020F000A06C04210843A06408202840002807D0D1
:10210000F807C00F002803D0A06C08210843A06482
:10211000A06C002843D020202840002806D0202092
:102120003040002802D0204601F037FC206840698A
:102130004021084080090190A06C08210840002837
:1021400002D10198002825D0204601F005FC206826
:10215000406940210840002818D020684069884321
:1021600021684861206C00280CD02548216C486308
:10217000206CFEF7D5F9002811D0206C416B884700
:102180000DE00DE02046FFF767FF08E02046FFF76F
:1021900063FF04E02046FFF75FFF0020A06479E7BB
:1021A00010202840002811D01020304000280DD0E9
:1021B00000BF002000902068006800902068406800
:1021C000009000BF00BF204600F01CF8802028408F
:1021D000002807D080203040002803D0204601F09E
:1021E000F3FC57E740202840002807D0402030402B
:1021F000002803D0204601F0C0FB4BE700BF49E7B1
:1022000045390008704710B50446002C01D1012063
:1022100010BDA069002800D000E000BF4520005D8F
:10222000002805D1002144200155204600F030F857
:102230002421452001552068C068012149038843B5
:102240002168C860204601F0EDFB206A002802D01A
:10225000204601F05BFB206800690921C902884320
:102260002168086120684069082188432168486125
:102270002068C0680121490308432168C860002024
:10228000A064202145200155462001550020BFE7CC
:1022900010B586B00446142101A8FDF75AFF224963
:1022A000206888423ED100BF204800680121890390
:1022B00008431E4908600846006801218903084058
:1022C000009000BF00BF00BF18484038406B02219B
:1022D00008431649403948630846406B02210840CC
:1022E000009000BF00BF80200190022002900120DA
:1022F0000390022004900020059001A90C48FEF7ED
:10230000DFFAFF20013001900820059001A908485C
:10231000FEF7D6FA012211461B20FEF73FFC1B20D8
:10232000FEF72AFC06B010BD003801404010024004
:10233000000400507047704700BFFEE710B5174813
:10234000407C012801D0022010BD154815490860C5
:10235000102048600021134881608021C160002165
:1023600001614161816101214903C161FEF742F9C7
:102370000C48FEF709FA002801D00120E4E7032108
:102380000848FEF709F900BF064804494039886447
:1023900008460449486200BF0020D5E7F400002049
:1023A000300002401012002010B500212748816043
:1023B000006800682121890288432449096808606F
:1023C000234824490860102048600021214881608A
:1023D0008021C160002101614161816101214903C6
:1023E000C161FEF707F91B48FEF7CEF90121194834
:1023F000FEF7D2F800BF174814498864084615490B
:10240000486200BF12481430134908600020486039
:102410000021114881608021C1600021016141617A
:10242000816101214903C161FEF7E4F80A48FEF722
:10243000ABF902210848FEF7AFF800BF0648034990
:10244000C86408460449486200BF10BD74110020EA
:102450001C000240CC11002010120020FFB583B0F8
:102460000E4617461C4602AA30460F9900F022FC81
:102470000546002000900190002D03D00E98001911
:10248000F02806D9082269460398FDF749FE07B0EF
:10249000F0BD69460D98088068460E99418029462E
:1024A0007943681E0C9A5043081881B268468180AF
:1024B000C480018880880818F02803D90021684664
:1024C0008180C180082269460398FDF729FE00BF7C
:1024D000DDE7F8B50446204600F076FA00280FD074
:1024E000002000906588E688AD196D1EABB2258886
:1024F000A688AD196D1EAAB26188208800F0DAFFA7
:10250000F8BD70B505460C46002C03D02146284680
:1025100001F082F970BDF8B504460D461646002C50
:1025200005D02089002802D06089002800D1F8BD9C
:1025300020894019F02803D860898019F02800D933
:10254000F5E7208961894843470060898019401E6A
:1025500083B220894019401E82B23146284600F0DD
:102560004BFF00F064FF216808460830394600F050
:10257000DBFB00F097FF00BFD9E7F8B504460D4636
:10258000002C00D1F8BD284600F01EFA002803D127
:10259000204600F07DF8F5E76888E988401886B2A3
:1025A00068880090238900221146204600F010F828
:1025B0006089B04209DD6089801B80B20090238968
:1025C00032460021204600F003F800BFDAE70000A1
:1025D000F0B585B004460D4616461F46002C0DD0BA
:1025E000002F0BD00A98002808D0E81921898842CA
:1025F00004D80A9830186189884201D905B0F0BD25
:102600007804000C02900A983018401E83B2E81932
:10261000401E82B23146284600F0EEFE00F007FF71
:10262000002D12D12089B8420FD12089704340007B
:10263000019020890A99484340000090226801993E
:102640005018009900F070FB1CE00020039015E08A
:1026500003983018218948434019400001902268AE
:10266000019811180948029A01F03CFB07480299A9
:10267000FFF747FF0398401C80B203900A99039824
:102680008842E5DB00F00EFF00BFB7E70C01002039
:1026900010B50446002C00D110BD01F0A7F800F0E1
:1026A000C6FE6168206800F03FFB00F0FBFE00BF43
:1026B000F2E70000F3B585B00F4604AA1F4938467B
:1026C00000F0F8FA0546002002900390002D01D09A
:1026D000032D06D9082202A90598FDF721FD07B0B0
:1026E000F0BD2E20684386B2F020801BC003010C91
:1026F000684601814121418186815D21C18100249B
:1027000013E0694609892E206043081880B20190C1
:1027100069464A8904A9095D0C235943084BC81826
:102720000199FFF7F8FE601CC4B2AC42E9DB082255
:1027300002A90598FDF7F4FC00BFD0E74E020000A7
:102740004C440008FFB583B00D461E46002D07D04F
:1027500005980A2804D30C990F984018F02801D93D
:1027600007B0F0BD02AA1099039800F0A3FA07463B
:10277000002415E00D98301860430E99401880B27F
:10278000019001988019F02808D802A9095D0C224F
:10279000514348190F9A0199FFF7BDFE601CC4B25E
:1027A000BC42E7DB00BFDBE7FFB587B012ACF0CC83
:1027B0000397029601950094119B109A089905A819
:1027C000FFF74CFE05A800F0FFF8002808D001A88C
:1027D000F0C011980090109B08A807C8FFF7B2FF3F
:1027E000082205A90798FDF79BFC0BB0F0BDFFB5CB
:1027F0008BB00C46199F179E169D0AAA3946204693
:1028000000F058FA0990149909984143401E684312
:10281000081880B2089008984008B04204D208987E
:102820004008301A80B200E00020079018990798FD
:1028300003AA83C20295159914980191009021462C
:102840000E9B0D9A0B98FFF7AFFF0FB0F0BD000085
:1028500000B587B0142102A8FDF77BFC00BF184823
:10286000406B02210843164948630846406B022129
:102870000840019000BF00BF042002900020039098
:102880000220049002A90F48FEF71AF804210D480F
:10289000FEF7F0F80C490870FEF7FCF80B490860E9
:1028A000FEF7F8F80A49086007480078002801D1C7
:1028B000012000E000200749087007B000BD0000BB
:1028C00000100240000400500C0000201400002002
:1028D000100000200D00002070B504211848FEF7FC
:1028E000C9F80546FEF7D6F8044616480078854232
:1028F00005D01448057014480460002070BD1248CB
:102900000068201A322801D20020F7E7002D04D1F8
:1029100001200E4908700020F0E70C4800780028DC
:102920000CD00B480068201A08D400200749087012
:1029300020469630064908600120DFE70020DDE7E9
:10294000000400500C000020140000200D000020A6
:102950001000002002468A4201D90846704790B212
:10296000FCE7000010B515480078030001F05EFA9E
:10297000061404080C10151402201049087010E009
:1029800003200E4908700CE004200C49087008E090
:1029900005200A49087004E000BF012007490870BB
:1029A00000BF00BF01200649087000F01DF900F0CB
:1029B00037F9FF200349087010BD00000400002013
:1029C00005000020360000200146002907D0888835
:1029D000002804D0C888002801D0012070470020BA
:1029E000FCE700001CB5044631480078002820D1DF
:1029F000304909680C2251432F4A8818FFF748FED6
:102A00002C480068401C2B4908602C480480214653
:102A10006846FFF74FFE082269462948FDF780FB0C
:102A20002748FFF7D1FF2749087001202049087087
:102A30002FE022480088844216D0224800780028DF
:102A400002D01F48FFF745FD1C4804802146684618
:102A5000FFF730FE082269461948FDF761FB184868
:102A6000FFF7B2FF17490870164A1278002A01D002
:102A7000134A00E0002211460E4A12680C235A4302
:102A80000D4BD018FFF779FD0A480068401C094932
:102A90000860084800681D2802D300200549086026
:102AA0000122510205200007FDF7EDFF1CBD0000CB
:102AB0002200002024000020B43F0008280000204D
:102AC0002A0000203200002010B53E4800780300A4
:102AD00001F0ACF906040E33425969683A48FFF731
:102AE000D7FD0122510205200007FDF7CCFF67E06A
:102AF0003648407C002804D03449488AFFF772FFEA
:102B00001AE000F071F8324909680C225143314A49
:102B10008818FFF7BDFD2E480068401C2C4908604E
:102B2000084600682B2801D30020086001225102CA
:102B300005200007FDF7A7FF42E02748FFF7A8FDA3
:102B400000F06EF8012000F05BF90122510205202F
:102B50000007FDF798FF33E01C49087C00F000F9FE
:102B60000446032C00DB00240C2161431B4A881817
:102B7000FFF78EFD1A48047001225102052000075C
:102B8000FDF781FF1CE01748FFF782FD00F048F8D1
:102B9000012000F0F1F80122510205200007FDF7A5
:102BA00072FF0DE000BF00F01FF8002000F04EFCA7
:102BB00000220121490205200007FDF764FF00BF44
:102BC00000BF10BD040000201C4100080C110020B3
:102BD0000800002058410008104100083441000856
:102BE00036000020284100080020084908700849E4
:102BF0000860401E07490880002007490880488077
:102C00008880C880054908707047000022000020B5
:102C100024000020280000202A000020320000208C
:102C2000002015E00021C9434200114B99520021B8
:102C3000C200104B9952C200D2185180C200D21863
:102C40009180C200D218D1800B4A1154411CC8B2E5
:102C50000828E7D30021C943084A11800021084A07
:102C6000118051809180D180064A11707047000018
:102C700024110020341100203C00002034000020EA
:102C8000440000204C000020002800D170470021A3
:102C900007E0F022425400230246083253544A1CF3
:102CA000D1B20829F5D300220274427442824261F3
:102CB00000BFEBE7F8B505460E461446002C01D1DF
:102CC0000020F8BDB54200DD35461648854200D9E2
:102CD0000546642D14D364212846FDF70BFA2070B5
:102CE0000A212846FDF706FA07460A21FDF702FAEF
:102CF00061700A212846FDF7FDF9A1700320E0E785
:102D00000A2D0BD30A212846FDF7F4F920700A2179
:102D10002846FDF7EFF961700220D2E72570012007
:102D2000CFE70000E703000070B506460C4611E04F
:102D3000012109032046FFF70DFE05462A463146CC
:102D4000064800F0CFFF29460448FFF7DAFB761962
:102D5000641B00BF002CEBD170BD00000C010020F3
:102D600001462D2901D2002070472D2901D10120D3
:102D7000FAE70220F8E7000010B588B00446002CFE
:102D800005D11948008819490988884229D0002CA2
:102D900006D117480078002802D01648FFF799FBA3
:102DA00015483C214622002302930392049105908A
:102DB00042201B210A23114A009101900A480188F0
:102DC00006A8FFF714FD082206A90A48FDF7A8F98E
:102DD0000848FFF7F9FD06490870034800880349D1
:102DE000088008B010BD0000200000203400002042
:102DF0004C00002044000020E7030000D4430008FA
:102E000070B588B0054600243DE02348065D002DDE
:102E100004D160002149085AB04232D0002D08D1B7
:102E20001F48005D002804D0E1001E4A8818FFF703
:102E300050FB8C22A0001C4940184088A1001A4B6E
:102E4000595A002302930592039104901C201021EB
:102E50000A23164A00910190314606A8FFF7C7FCE5
:102E6000E100104A8818082206A9FDF759F9E10087
:102E70000C4A8818FFF7A8FD094908556000074962
:102E80000E52601CC4B2082CBFD3034808384069F6
:102E90000749086008B070BD1411002024110020FB
:102EA0003C00002034110020C44400085C430008AA
:102EB0003800002070B50446002C22D01548007858
:102EC00000280AD1012013490870FDF7E3FD1249DB
:102ED00008600020114908801AE0FDF7DBFD0E496B
:102EE0000968451A0E492846FDF704F90B49088080
:102EF000084600880B49884202D9084607490880DD
:102F000006E000200349087003490860034908806F
:102F100070BD0000180000201C00002020000020D0
:102F200060EA0000E703000070477047044840680B
:102F3000072252031040410B8800024A1058704784
:102F400000100240643F00087CB504462068006819
:102F50004021884321680860182123480068FDF754
:102F6000C9F805467D21C900FDF7C4F8642148432E
:102F7000019020684068402188432168486000BF74
:102F80000198002804D1606D40210843606508E085
:102F90000198401E019020684068402108400028A8
:102FA000EED100BFFDF776FD0546642300228021A7
:102FB0000090204600F0B2F9002801D04020606562
:102FC000FDF768FD054664230022032149020090B5
:102FD000204600F025F9002801D040206065072137
:102FE000512001557CBD0000000000207CB5044646
:102FF000182142480068FDF77DF805467D21C9008B
:10300000FDF778F8642148430190206840688021EA
:1030100088432168486000BF0198002804D1606D92
:1030200040210843606508E00198401E0190206837
:103030004068802108400028EED100BFFDF72AFD3E
:1030400005462A466421204600F0B5F8002801D044
:10305000402060652068006840218843216808603E
:10306000FDF718FD05466423002203214902009064
:10307000204600F0D5F8002801D040206065206887
:10308000406840210840002834D0206840688843C8
:103090002168486000BF0198002804D1606D40217C
:1030A0000843606508E00198401E01902068406870
:1030B000402108400028EED100BFFDF7EBFC05469B
:1030C0006423002280210090204600F027F9002888
:1030D00001D040206065FDF7DDFC05466423002239
:1030E000032149020090204600F09AF8002801D000
:1030F000402060650721512001557CBD0000002063
:1031000070B505466C6A20684068800880002168B8
:103110004860606D10210843606501215120015510
:103120002046FEF70FFB70BD70B50446656A284661
:10313000FEF774FF70BDF8B505466C6AFDF7AAFC92
:103140000646286800682021084020282ED02068E4
:1031500040688843216848602068406802218843AD
:103160002168486032466421204600F024F8002897
:1031700003D0606D202108436065A068002809D154
:1031800000BF00902068C0680090206880680090B0
:1031900000BF00BF00206086012151200155606DF5
:1031A000002803D02046FEF7CDFAF8BD2046FEF7F2
:1031B00029FF00BFF9E7F8B504460E461546334629
:1031C00000220321C9022046009500F029F80028BA
:1031D00005D0606D2021084360650320F8BD3346AB
:1031E000002280212046009500F098F8002805D0A4
:1031F000606D2021084360650320EFE7334600221D
:10320000032149022046009500F00AF8002805D065
:10321000606D2021084360650320DFE70020DDE7C3
:10322000F0B585B004460D4616461F4600200090B6
:10323000FDF730FC0A99401A381A0390FDF72AFC72
:10324000029020680C3001903348006823214843E5
:10325000000D03994843049056E003204002854244
:1032600006D1002E04D101980178009168460078BB
:10327000781C002848D0FDF70DFC0299411A0398EC
:10328000814202D20398002837D120684068E021AB
:10329000884321684860FF210531606888420ED16B
:1032A0000121C903A068884203D04911A06888425F
:1032B00005D1206800684021884321680860012109
:1032C0004903606A88420DD100BF206800688843C6
:1032D00021680860206800680121490308432168CB
:1032E000086000BF01215120015500BF002150207E
:1032F000015500BF032005B0F0BD0498002800D19F
:1033000003900498401E0490206880682840B042D2
:10331000A3D10020EFE7000000000020FFB583B03C
:1033200004460D461E46FDF7B5FB0C99401A371AA8
:10333000FDF7B0FB01902F4800684001000D784375
:10334000029049E0701C002846D0FDF7A3FB0199CC
:10335000401AB84201D2002F37D120684068E021DE
:10336000884321684860FF210531606888420ED19A
:103370000121C903A068884203D04911A06888428E
:1033800005D1206800684021884321680860012138
:103390004903606A88420DD100BF206800688843F5
:1033A00021680860206800680121490308432168FA
:1033B000086000BF01215120015500BF00215020AD
:1033C000015500BF032007B0F0BD0298002800D1CE
:1033D00000270298401E0290206880682840A8427A
:1033E00001D1012100E0002105988142AAD10020ED
:1033F000E9E7000000000020F8B504460D46164637
:103400001F462A2000F0FAF9A0B200F0BFF9B0B2CE
:1034100000F0BCF92B2000F0F1F9A8B200F0B6F9E9
:10342000B8B200F0B3F92C2000F0E8F9F8BD10B5FF
:1034300000220121C90305200007FDF724FB01221A
:10344000D10205200007FDF71EFB10BDF8B50546AB
:10345000002407E02812124908550A46601C15543A
:10346000A01C84B2802CF5D3E1267602F709700601
:10347000400E009000F0BAF9FFF7D9FF04E0802178
:10348000074800F0C9F97F1E002FF8D100980028E6
:1034900003D00348009900F0BFF900F003F8F8BD2D
:1034A0005412002010B50122D10305200007FDF7BA
:1034B000EAFA10BDFFB583B005460E461746F02D5B
:1034C00006D2F02E04D2AF4202DB0698B04201DAF7
:1034D00007B0F0BDF02F00D3EF270698F02801D3F6
:1034E000EF20069000240AE00C9800121B490855B2
:1034F0000C98C1B2194A601C1154A01C84B2802CD3
:10350000F2D3781B401C0699891B491C4843029042
:1035100002984000C009019002988006400E009079
:103520003A4631462846069BFFF766FFFFF77FFFC6
:1035300006E08021094800F06FF90198401E0190D3
:1035400001980028F5D10098002803D0034800997D
:1035500000F062F9FFF7A6FF00BFB9E754120020A0
:1035600010B50122510205200007FDF78CFA012257
:10357000D10305200007FDF786FA00220121C902C8
:1035800005200007FDF77FFA01221103052000073F
:10359000FDF779FA0520FDF77DF9002201210903E5
:1035A00005200007FDF76FFA1420FDF773F90122DB
:1035B000110305200007FDF766FA7820FDF76AF988
:1035C000012000F01BF97820FDF764F9112000F0CC
:1035D00015F97820FDF75EF93A2000F00FF9552033
:1035E00000F013F9B22000F009F90C2000F00DF9F9
:1035F0000C2000F00AF9002000F007F9332000F059
:1036000004F9332000F001F9B72000F0F7F8352075
:1036100000F0FBF8BB2000F0F1F8322000F0F5F8E4
:10362000C22000F0EBF8012000F0EFF8C32000F01A
:10363000E5F8192000F0E9F8C42000F0DFF82020B8
:1036400000F0E3F8C62000F0D9F80F2000F0DDF814
:10365000D02000F0D3F8A42000F0D7F8A12000F08B
:10366000D4F8E02000F0CAF8D02000F0CEF808200E
:1036700000F0CBF80E2000F0C8F8092000F0C5F8E3
:10368000092000F0C2F8052000F0BFF8312000F05A
:10369000BCF8332000F0B9F8482000F0B6F8172045
:1036A00000F0B3F8142000F0B0F8152000F0ADF8E9
:1036B000312000F0AAF8342000F0A7F8E12000F053
:1036C0009DF8D02000F0A1F8082000F09EF80E2010
:1036D00000F09BF8092000F098F8092000F095F818
:1036E000152000F092F8312000F08FF8332000F020
:1036F0008CF8482000F089F8172000F086F8142094
:1037000000F083F8152000F080F8312000F07DF8FB
:10371000342000F07AF8212000F070F8362000F014
:103720006DF8602000F071F800F060F8292000F0DA
:1037300065F81420FDF7AEF810BD000013B50C4677
:1037400000220121C90305200007FDF79CF9012C87
:1037500006D10122D10205200007FDF794F906E009
:1037600000220121C90205200007FDF78CF964231E
:10377000012269460448FEF7B1F90122D103052070
:103780000007FDF780F91CBDB400002038B50446E1
:103790002112684601704470022100F001F838BD22
:1037A00070B505460C46002D01D0002C00D170BD2F
:1037B00000220121C90305200007FDF764F9012259
:1037C000D10205200007FDF75EF97D23DB002246CC
:1037D00029460548FEF782F90122D103052000079A
:1037E000FDF751F900BFE2E7B400002010B5EF2368
:1037F0001A4600210846FFF7FFFD10BD10B504462C
:1038000000212046FFF79AFF10BD10B504460121A4
:103810002046FFF793FF10BDF8B505460E46002D74
:1038200001D0002E00D1F8BD00201F4908701F49AB
:103830000870FEF783FD0446002C25D13246294648
:103840001B48FEF743FB00281ED1FDF723F907466E
:103850000EE0FDF71FF9C01B7D21C900884207D982
:103860001348FDF783FE01200F4908700F490870C7
:103870000D4800780028ECD0FEF796FD0B48007844
:10388000002800D1CFE703E0002C01D1FEF78CFD2A
:103890000120054908707D23DB0032462946044893
:1038A000FEF71CF900BFBEE75800002059000020B9
:1038B000B4000020704710B5FDF7F2F810BD00000D
:1038C0000E484068000C00040D498988012252030B
:1038D000114389B2084309494860084640680949CC
:1038E000084007498031098EC905C90908430349C1
:1038F0004860C80304498860704700000010024017
:10390000000FFF1FFFFF00FE00ED00E04022016AF4
:103910001140002915D00168496992019143426A1A
:1039200011430268516101221203416A914208D198
:1039300001684969032252039143826A1143026874
:103940005161704770B505466C6A002060876086DB
:103950002046FEF781FB70BD0168C968FF22213255
:1039600091430268D16001684969490849000268C9
:103970005161202246210A54704710B50446206840
:10398000C068402188432168C86020214520015536
:103990002046FEF7D0FC002010BD70B5044646203E
:1039A000005D22283BD101210903A06888420CD187
:1039B0002069002809D1656B20684068C005C00DEA
:1039C0002880606B801C606306E020684068C1B29C
:1039D000626B501C60631170608F401E80B2608704
:1039E00000281AD12068C068202188432168C86057
:1039F0002068C068FF21013188432168C8602068C1
:103A00004069400840002168486120214620015556
:103A10002046FEF78FFC002070BD0020FCE702204E
:103A2000FAE70000FEB50446206800690121490359
:103A30008843E1680843216808612169A068084358
:103A40006169084302902068C0685E490840029995
:103A500008432168C860E06902902068406901213C
:103A6000C902884302990843216848612068406977
:103A7000032109028843A1690843216848610121A3
:103A8000C902E06988424ED1FDF782F905466268B5
:103A9000510019226A431046FCF72CFB06466421AC
:103AA000FCF728FB07016268510019226A4310469F
:103AB000FCF720FB06466268510019226A43104653
:103AC000FCF718FB64210090FCF714FB64214843C9
:103AD000301AC00032300190FCF70CFBF82108408E
:103AE00040003F186268510019226A431046FCF7F3
:103AF00001FB06466268510019226A431046FCF732
:103B0000F9FA64210090FCF7F5FA64214843301A71
:103B1000C00032300190FCF7EDFA4007400F381832
:103B2000216888604CE0FDF733F905466268910032
:103B300019226A431046FCF7DDFA06466421FCF7B9
:103B4000D9FA07016268910019226A431046FCF70E
:103B5000D1FA06466268910019226A431046FCF7C2
:103B6000C9FA64210090FCF7C5FA64214843301A71
:103B7000000132300190FCF7BDFAF02108403F18F7
:103B80006268910019226A431046FCF7B3FA0646B0
:103B90006268910019226A431046FCF7ABFA64216F
:103BA0000090FCF7A7FA64214843301A0001323034
:103BB0000190FCF79FFA0007000F38182168886011
:103BC000FEBD0000F3E9FFFF10B501464520405C53
:103BD000212830D1012424038868A0420ED108692D
:103BE00000280BD1CA6A086800681088C005C00D9B
:103BF0000C686060C86A801CC86208E0CB6A08680C
:103C0000006818780C686060C86A401CC862488EFA
:103C1000401E80B2488600280BD10868C068802406
:103C2000A0430C68E0600868C068402420430C682A
:103C3000E060002010BD0220FCE7000010B5024843
:103C4000FEF70CFA10BD0000680000200246D1B259
:103C50000120C005142904D31F2902D801238B4059
:103C6000184601231B06984200D9184670470000E9
:103C700010B5174817490860FF200530486000213B
:103C80001448816007210902C1600021016141617E
:103C90000121490281610021C16101624162072164
:103CA0008162FDF75FFD002801D0FCF76FFA012269
:103CB00040210948FCF7E7FE00F05AF80749088060
:103CC00000F07AF80446FFF7C1FF0549086010BD0F
:103CD000003001407411002000040050500000200A
:103CE00054000020F7B58CB00D4614460B2108A8EF
:103CF00001722802010E08A841722804010E08A8CA
:103D00008172C572FF210173002704E0FF2002A920
:103D1000C855781C87B2202FF8D3002240211248C2
:103D2000FCF7B1FE642305220AA91048FDF7D6FE70
:103D300011E02646202E00D920266420334600902C
:103D400002A90A480C9AFDF7ABFF0C9880190C9059
:103D5000A01B84B200BF002CEBD1012240210248FD
:103D6000FCF791FE0FB0F0BD00040050741100206C
:103D700010B50024002240210E48FCF784FE90205C
:103D800000F044F8002000F041F8002000F03EF878
:103D9000002000F03BF8FF2000F038F80402FF207C
:103DA00000F034F80443012240210248FCF76BFE86
:103DB000204610BD000400503EB5002410A000684D
:103DC0000290002240210F48FCF75DFE642004238E
:103DD00001AA02A900900C48FDF762FF01224021D0
:103DE0000848FCF750FE684640790404684680792C
:103DF000000204436846C079044320463EBD0000EB
:103E00009FFFFFFF000400507411002001B582B035
:103E10006420012301AA02A900900348FDF740FF96
:103E2000684600790EBD00007411002030B474465D
:103E3000641E2578641CAB4204D3635D5B00E31809
:103E400030BC18471D46F8E710B5002819DB1A4AA0
:103E500003231B02D21883089B00D2588307DC0E71
:103E6000FF23A3409A438B071B0E8407E40EA34055
:103E70001A43114B032424021B198408A4001A516D
:103E800018E00E4A03071B0F083B9B089B00D25803
:103E90008307DC0EFF23A3409A438B071B0E840786
:103EA000E40EA3401A43054B0407240F083CA40862
:103EB000A4001A5110BD000000E100E01CED00E07C
:103EC00002E008C8121F08C1002AFAD170477047E3
:103ED000002001E001C1121F002AFBD17047FCF74E
:103EE000EBFDFCF777FAFFF7C3FEFCF7ADFAFCF742
:103EF0004FF9FCF74BFAFFF733FB01E0FCF7BCF995
:103F0000FCE70000000000000000000000000000CE
:103F100000000000000000000000000000000000A1
:103F2000000000000100000002000000030000008B
:103F30000400000006000000070000000800000068
:103F40000900000000000000000000000000000068
:103F5000000000000100000002000000030000005B
:103F60000400000000093D0000127A000024F40063
:103F70004086510100366E0100093D0000093D00F8
:103F800000093D0000140050010000000014005022
:103F90000200000000140050080000000000005063
:103FA0000200000000000050040000000004005067
:103FB000020000000020000000C20100F000F0003C
:103FC00000F0010000C20100F000F00000C003009A
:103FD00000C20100F000F0000090050000C20100E6
:103FE000F000F0000060070000C20100F000F000E7
:103FF0000030090000C20100F000F00000000B00DA
:1040000000C20100F000F00000D00C0000C201006E
:10401000F000F00000A00E0000C20100F000F0006F
:104020000070100000C20100F000F000004012001B
:1040300000C20100F000F0000010140000C20100F6
:10404000F000F00000E0150000C20100F000F000F8
:1040500000B0170000C20100F000F000008019005D
:1040600000C20100F000F00000501B0000C201007F
:10407000F000F00000201D0000C20100F000F00080
:1040800000F01E0000C20100F000F00000C020009F
:1040900000C20100F000F0000090220000C2010008
:1040A000F000F0000060240000C20100F000F00009
:1040B0000030260000C20100F000F00000002800DF
:1040C00000C20100F000F00000D0290000C2010091
:1040D000F000F00000A02B0000C20100F000F00092
:1040E00000702D0000C20100F000F00000402F0021
:1040F00000C20100F000F0000010310000C2010019
:10410000F000F00000E0320000C20100F000F0001A
:1041100000B0340000C20100F000F0000080360062
:1041200000C20100F000F0000050380000C20100A1
:10413000F000F00000203A0000C20100F000F000A2
:1041400000F03B0000C20100F000F00000C03D00A4
:1041500000C20100F000F00000903F0000C201002A
:10416000F000F0000060410000C20100F000F0002B
:104170000030430000C20100F000F00000A0480041
:1041800000C20100F000F00000704A0000C201000F
:10419000F000F00000104E0000C20100F000F0003E
:1041A00000E04F0000C20100F000F00000B051003C
:1041B00000C20100F000F0000080530000C20100C6
:1041C000F000F0000050550000C20100F000F000C7
:1041D0000020570000C20100F000F00000F058007D
:1041E00000C20100F000F00000C05A0000C201004F
:1041F000F000F00000905C0000C20100F000F00050
:1042000000605E0000C20100F000F00000306000BD
:1042100000C20100F000F0000000620000C20100D6
:10422000F000F00000D0630000C20100F000F000D8
:1042300000A0650000C20100F000F00000706700FF
:1042400000C20100F000F0000040690000C201005F
:10425000F000F00000106B0000C20100F000F00060
:1042600000106B0000C20100F000F0000040690087
:1042700000C20100F000F0000070670000C2010001
:10428000F000F00000A0650000C20100F000F000A6
:1042900000D0630000C20100F000F00000006200E6
:1042A00000C20100F000F0000030600000C2010018
:1042B000F000F00000605E0000C20100F000F000BD
:1042C00000905C0000C20100F000F00000C05A0045
:1042D00000C20100F000F00000F0580000C2010030
:1042E000F000F0000020570000C20100F000F000D4
:1042F0000050550000C20100F000F00000805300A3
:1043000000C20100F000F00000B0510000C2010046
:10431000F000F00000E04F0000C20100F000F000EB
:1043200000104E0000C20100F000F00000704A00D2
:1043300000C20100F000F00000A0480000C201002F
:10434000F000F0000030430000C20100F000F00077
:104350000060410000C20100F000F00000B06E00FB
:104360008003000010001C0000C06E0080030000ED
:1043700010001C0000D06E008003000010001C0024
:1043800000E06E008003000010001C0000F06E00D2
:104390008003000010001C0000006F00800300007C
:1043A00010001C0000106F008003000010001C00B3
:1043B00000206F008003000010001C0000306F0020
:1043C0008003000010001C0000406F00800300000C
:1043D00010001C0000506F00EC0D00001B0042009C
:1043E00000606F00EC0D00001B00420000706F00C9
:1043F000EC0D00001B00420000806F00EC0D00007F
:104400001B00420000906F00EC0D00001B004200FA
:1044100000A06F00EC0D00001B00420000B06F0018
:10442000EC0D00001B00420000C06F00EC0D00000E
:104430001B00420000D06F00EC0D00001B0042008A
:1044400000E06F00EC0D00001B00420000F06F0068
:104450006C2100002E005D00002070006C21000027
:104460002E005D00005070006C2100002E005D00E9
:10447000008070006C2100002E005D0000B0700014
:104480006C2100002E005D0000E070006C21000037
:104490002E005D00001071006C2100002E005D00F8
:1044A000004071006C2100002E005D000070710062
:1044B0006C2100002E005D0000A071006C21000046
:1044C0002E005D0030001700A400170030005300DC
:1044D000A400530030008F00A4008F003000CB00F8
:1044E000A400CB000024F40080B14F0100366E011F
:1044F00000366E0100093D0000127A000024F4002D
:104500004086510100366E010200000003000000E9
:1045100002000000020000003845000800000020F2
:1045200068000000C03E0008A045000868000020A8
:1045300070160000D03E000800127A000001000052
:10454000000000000001000000000000000000006A
:10455000000000000000000000000000000000005B
:10456000FFFF00000000000000000000FFFFFF0050
:10457000000000000000000000000000000000003B
:1045800000000000000000000000000000008000AB
:104590000100000000000000040000000100000015
:04000005080000C12E
:00000001FF
