:020000040800F2
:10000000A0050020D9000008AD1D0008A91D0008AA
:1000100000000000000000000000000000000000E0
:10002000000000000000000000000000FD220008A9
:100030000000000000000000AF1D0008FF220008C3
:10004000EB000008EB000008EB000008EB000008E4
:10005000EB000008EB000008EB000008EB000008D4
:10006000EB000008EB00000875030008000000002A
:10007000EB000008EB000008EB000008EB000008B4
:1000800000000000EB00000800000000EB0000088A
:1000900000000000EB000008EB000008EB00000887
:1000A000EB000008EB000008EB00000885260008C4
:1000B000EB000008EB000008EB000008EB00000874
:1000C0000448854600F050F8004800477F280008A3
:1000D000C046C046A00500200448804704480047A9
:1000E000FEE7FEE7FEE7FEE7FEE7FEE7092300087E
:1000F000C100000830B50B46014600202022012433
:1001000009E00D46D5409D4205D31D469540491B4B
:100110002546954040191546521E002DF1DC30BD94
:1001200003460B439B0703D009E008C9121F08C010
:10013000042AFAD203E00B780370401C491C521EBB
:10014000F9D27047D2B201E00270401C491EFBD2C6
:1001500070470022F6E710B513460A4604461946D2
:10016000FFF7F0FF204610BD064C0125064E05E0C6
:10017000E36807CC2B430C3C98471034B442F7D3C8
:10018000FFF7A2FF84290008A429000800BFFEE7AA
:1001900010B586B0142101A8FFF7DBFF00BF2C4883
:1001A000406B012108432A4948630846406BC00759
:1001B000C00F009000BF00BF00BF0846406B022187
:1001C0000843234948630846406B022108400090D9
:1001D00000BF00BF00BF1E48406B202108431C49E0
:1001E00048630846406B20210840009000BF00BFD4
:1001F000112002900120039002200490002422E0AC
:10020000200114494018808801902101114A50585A
:1002100001A900F03DFA20010E49401880890190A3
:1002200021010C4A8918886801A900F031FA2101DE
:10023000084A881800F018F82101064A881800F0CA
:100240000BF8601CC4B2032CDAD306B010BD00005A
:10025000001002402029000810B50446A18901229F
:10026000A06800F0EFFA10BD10B50446A188012285
:10027000206800F0E7FA10BD10B50F480F4908607C
:10028000FF200530486000210C48816007210902E9
:10029000C1600021016141610121490281610021A8
:1002A000C161016241620721816201F03DF80028CD
:1002B00001D0FFF76BFF10BD003800406400002044
:1002C00000B591B0302105A8FFF743FF0020019051
:1002D00002900390049002200590C0010A90002033
:1002E0000B901348008AC004C00C0121C9030843C5
:1002F0000C9002200E9000210F910421109105A86E
:1003000000F0B6FC002801D0FFF740FF0720019065
:1003100002200290002003900490022101A800F026
:1003200025FB002801D0FFF731FF11B000BD000010
:10033000000FFF1F10B50D480D490860E120400275
:10034000486000210A488160C16001610C2141615F
:1003500000218161C161002005490862084601F061
:100360008AFC002801D0FFF711FF10BD00380140C2
:100370001800002010B5034800F0A8F8024800F06B
:10038000A5F810BD140100205801002070B50446E6
:1003900000252120005D022803D00420A063012550
:1003A0002BE0206800680E218843216808602068DF
:1003B00000684008400021680860114920688842B0
:1003C00001D1012008E00E4914312068884201D192
:1003D000102001E0FF20013009490839486001215F
:1003E0002120015500BF00212020015500BF606B76
:1003F000002802D02046616B8847284670BD000067
:1004000008000240F8B504460D463F27114A21680E
:10041000881A1421FFF76EFE064600BF0E480068DA
:10042000012108430C49086008460068C007C00F56
:10043000009000BF00BF09488068B107CA0E394666
:1004400091408843B107CA0E2946914008430349A9
:100450008860F8BD080002404010024000000140E2
:1004600010B50446002C01D1012010BD20680068A1
:100470004008400021680860002021680860216869
:100480004860216888602168C8600F4A2168881A1E
:100490001421FFF72FFE800020640B480838E0632A
:1004A0000120216C8840E16B48600020A062E0627E
:1004B00020636063A06300212120015500BF20203C
:1004C000015500BF0020D0E70800024070B5044687
:1004D000E06B0568206806680420216C884028408D
:1004E000002828D004203040002824D0206800684C
:1004F00020210840002805D1206800680421884395
:10050000216808603A492068884201D1042008E047
:10051000374914312068884201D1402001E0012090
:100520008002334908394860E06A00285FD02046DD
:10053000E16A88475BE00220216C8840284000285F
:1005400030D00220304000282CD0206800682021C4
:100550000840002808D1206800680A2188432168E3
:10056000086001212120015521492068884201D1DC
:10057000022008E01E4914312068884201D1202061
:1005800001E0012040021A490839486000BF0021FB
:100590002020015500BFA06A002828D02046A16A6B
:1005A000884724E00820216C8840284000281ED07D
:1005B0000820304000281AD0206800680E218843A7
:1005C000216808600120216C8840E16B48600120AF
:1005D000A06301212120015500BF002120200155E9
:1005E00000BF206B002802D02046216B884770BDD9
:1005F0000800024070B504460025002C01D10120FE
:1006000070BD164A2168881A1421FFF773FD800017
:10061000206412480838E063022121200155206837
:1006200005680F480540A16860680843E168084311
:100630002169084361690843A1690843E1690843E6
:100640000543206805600020A06301212120015599
:100650000021202001550020D2E7000008000240C0
:100660000FC0FFFF70B5044600F0F2F806462546BD
:10067000681C002802D0054800682D1800BF00F053
:10068000E7F8801BA842FAD370BD000014000020D8
:1006900070B503460022CBE0012696400C6834403A
:1006A000002C71D04D68022D02D04D68122D15D14D
:1006B000D508AE001D462035A8595507EE0E0F256A
:1006C000B5400646AE4330465607F60E0D69B540B6
:1006D0002843D508AD001E462036705118685600D4
:1006E0000325B5400646AE4330460D79AD07AD0F44
:1006F0005600B540284318604D68012D08D04D685C
:10070000022D05D04D68112D02D04D68122D18D143
:10071000986856000325B5400646AE43304656005D
:10072000CD68B54028439860586801259540064635
:10073000AE43304610264D6835402D09954028437C
:100740005860D86856000325B5400646AE4330468B
:1007500056008D68B5402843D860012636074D689D
:100760003540B54263D1354D9608B600A859950776
:10077000EE0E0F25B5400646AE43304605252D0743
:10078000AB4202D1002506E051E02D4DAB4201D134
:10079000012500E002259607F60EB5402843274DB7
:1007A0009608B600A851254D203528680546A54372
:1007B0002846012636044D683540B54202D105462B
:1007C000254328461D4D2035286068680546A54309
:1007D0002846012676044D683540B54202D10546CB
:1007E00025432846154D20356860144D603D286826
:1007F0000546A5432846012636054D683540B542D5
:1008000002D10546254328460C4D603D28606868A6
:100810000546A5432846012676054D683540B54274
:1008200002D1054625432846044D603D6860521CB0
:100830000D68D540002D00D02EE770BD6018024035
:1008400000040050002A01D0816100E081627047FD
:1008500001480068704700000C0000200348006851
:100860000349096840180149086070470C000020DE
:100870001400002010B50024032000F009F800281F
:1008800001D0012401E000F033F8204610BD000043
:10089000F8B5044600251348006800281ED011480A
:1008A00001687D20C000FFF725FC074639460E4849
:1008B0000068FFF71FFC064601F0EAF800280BD19C
:1008C000042C07D200222146401E00F045F80748BC
:1008D000046004E0012502E0012500E0012528462E
:1008E000F8BD0000140000200000002010000020CF
:1008F00008B500BF0E480068012108430C49086094
:1009000008460068C007C00F009000BF00BF00BFCE
:1009100007484038C06B8905084305494039C8631A
:100920000846C06B09040840009000BF00BF08BD26
:10093000401002400146002909DB00BF00BFCB0682
:10094000DB0E01229A40034B1A6000BF00BF00BFBC
:100950007047000000E100E070B504460D46164601
:100960002946204601F040FF70BD000070B50446E6
:100970000D46002C01D1012070BD6B480068800736
:10098000800FA84218D26848006880088000284379
:1009900065490860FFF75CFF064607E0FFF758FF70
:1009A000801B6249884201D90320E5E75E48006860
:1009B0008007800FA842F1D1022120680840022858
:1009C00015D1042120680840042807D158488068C0
:1009D00007210903884340185549886054488068B6
:1009E0000F2109028843A168084351498860207893
:1009F000C007C00F002854D06068012808D14C48B7
:100A0000006801214904084000282ED10120B3E7E5
:100A10006068002808D14648006801218902084022
:100A2000002822D10120A7E76068022808D14048A9
:100A30000068012149060840002816D101209BE7E3
:100A40006068042808D13A484030C0690221084053
:100A500000280AD101208FE735484030006A022182
:100A60000840002801D1012086E731488068C0088D
:100A7000C000616808432E498860FFF7E9FE06461A
:100A800007E0FFF7E5FE801B2849884201D90320D3
:100A900072E727488068382108406168C9008842A9
:100AA000EFD1214800688007800FA84218D91E485E
:100AB00000688008800028431B490860FFF7C8FED3
:100AC000064607E0FFF7C4FE801B1849884201D99B
:100AD000032051E7144800688007800FA842F1D135
:100AE000042120680840042808D1114880680721A3
:100AF00009038843E16808430D49886000F03AF82B
:100B00000B4989680F2212021140090A8900094A1B
:100B1000515CC906C90EC84007490860074800680B
:100B2000FFF7B6FE28E7000000200240881300000F
:100B300000100240A0280008000000201000002043
:100B400001480068704700000000002000B5FFF772
:100B5000F7FF06498968072212031140090B890033
:100B6000034A515CC906C90EC84000BD00100240CE
:100B7000E0280008F0B58BB014223A4905A8FFF729
:100B8000CFFA3848143001460EC9C06801AC0EC413
:100B900004903548806838210840002818D1324830
:100BA000006809020840C10A012088400A902E48C6
:100BB0004068072149030840450B042D00D9002552
:100BC000A90005AA50580A99FFF794FA044645E08F
:100BD0002548806838210840082801D1234C3DE091
:100BE0002148806838210840102825D11E48C06857
:100BF000C707FF0F1C48C0680C2108408008800010
:100C000001A90E58002F05D0012F11D117483446E5
:100C1000444310E014484068072149030840450B4D
:100C2000042D00D90025A80005A90C58744302E042
:100C3000059C744300BF11E00B48806838210840D0
:100C4000202801D1840209E0074880683821084043
:100C5000182802D10124E40300E0002420460BB050
:100C6000F0BD0000602900080010024000366E014F
:100C7000F0B587B00446F94903C905910490F749D6
:100C8000083103C903910290002C02D1012007B062
:100C9000F0BD2078C007C00F00287DD0F0488668DE
:100CA00038210E40C068C707FF0F102E01D1012F59
:100CB00001D0082E0BD1EA48006801214904084000
:100CC0000028EAD06068002866D10120DFE760686C
:100CD00000282FD000BFE2480068012109048843A2
:100CE000DF49086008460068012189048843DC491F
:100CF000086000BFFFF7ACFD054606E0FFF7A8FD62
:100D0000401BC82801D90320C1E7D548006801214C
:100D1000490408400128F1D0A068002808D0D04834
:100D2000006980088000A1680843CD49086101E09E
:100D30000120ACE700BF012109046068884205D1A9
:100D4000C74800680843C649086021E00521090436
:100D5000606888420ED1C2480068012189040843B6
:100D6000BF49086008460068012109040843BC49DE
:100D700008600DE0BA480068012109048843B849B9
:100D8000086008460068012189048843B449086066
:100D900000BF6068002800E025E012D0FFF758FD92
:100DA000054606E0FFF754FD401BC82801D9032083
:100DB0006DE7AB4800680121490408400028F1D0E4
:100DC00011E0FFF745FD054606E0FFF741FD401B3A
:100DD000C82801D903205AE7A14800680121490425
:100DE00008400028F1D1022120680840022874D16F
:100DF0009B4880683821084006469948C068C70764
:100E0000FF0F102E01D1002F01D0002E48D19448A1
:100E10000068012189020840002804D06069002888
:100E200001D1012033E78E484068000C0004E169DD
:100E300008438B494860FFF70BFD054606E0FFF7C6
:100E400007FD401B022801D9032020E784480068E1
:100E50000121890208400028F1D0002E18D18048D5
:100E600000680721C9028843A16908437C490860DA
:100E7000FFF780FE7A4989680F2212021140090AA1
:100E80008900784A515CC906C90EC8407649086095
:100E900076480068FFF7FCFC002848D00120F6E601
:100EA000606900282AD06E4800680721C90288437B
:100EB000A16908436A490860084600688915084323
:100EC00067490860FFF7C4FC054607E0FFF7C0FC70
:100ED000401B022802D90320D9E628E060480068B8
:100EE0000121890208400028F0D05D484068000CCC
:100EF0000004E16908435A49486018E0584800680E
:100F0000FF210131884356490860FFF7A1FC0546DF
:100F100006E0FFF79DFC401B022801D90320B6E63E
:100F20004F4800680121890208400028F1D10821BA
:100F300020680840082849D149488068382108407D
:100F400018280BD146484030006A0221084000288A
:100F50003CD0206A002839D1012098E6206A002878
:100F60001AD03F484030006A012108433C494031D3
:100F70000862FFF76DFC054606E0FFF769FC401BC1
:100F8000022801D9032082E635484030006A022158
:100F900008400028F1D019E031484030006A40088C
:100FA00040002F4940310862FFF752FC054606E039
:100FB000FFF74EFC401B022801D9032067E62848B2
:100FC0004030006A022108400028F1D10421206845
:100FD0000840042872D100200190214880683821FF
:100FE000084020280BD11E484030C069022108402B
:100FF00000287BD0E068002878D1012047E6184817
:10100000C06B010F01208843002810D000BF144896
:10101000C06B0121090708431149C8630846C06B2A
:1010200009040840009000BF00BF01200190104853
:101030000068FF2101310840002822D10C480068D7
:1010400008430B490860FFF703FC054612E0FFF771
:10105000FFFB401B02280DD9032018E65029000889
:1010600000100240A028000800000020100000200E
:1010700000700040A8480068FF21013108400028A6
:10108000E5D0E06800283DD000BFA448C069400812
:101090004000A249C8610846C069042188439F49AD
:1010A000C86100BFFFF7D4FB054608E0FFF7D0FB9F
:1010B000401B9B49884202D90320E8E57EE097481F
:1010C000C069022108400128F0D0032109042069E9
:1010D000084000280BD1914840380069884301211D
:1010E000490441188D48403801610BE065E08B48A8
:1010F000403800690321090488432169084387496E
:101100004039086100BFE068012806D18348C06902
:10111000012108438149C8611AE0E06805280CD123
:101120007E48C069042108437C49C8610846C069FB
:10113000012108437949C8610AE07848C06941083B
:1011400049007648C161C069042188437349C86178
:1011500000BFE068002812D0FFF77AFB054607E0E1
:10116000FFF776FB401B6E49884201D903208EE5CC
:101170006A48C069022108400028F1D011E0FFF759
:1011800067FB054607E0FFF763FB411B64488142AC
:1011900001D903207BE56148C0690221084000288D
:1011A000F1D10198012808D15C484038C06B012179
:1011B0000907884359494039C86300BF606A00285D
:1011C00074D05648403880683821084010286ED0C6
:1011D000606A02286DD15148403800680121090633
:1011E00088434E4940390860FFF732FB054606E068
:1011F000FFF72EFB401B022801D9032047E5474893
:10120000403800680121490608400028F0D1E06A12
:1012100080080690A06A01280DD10698800004A9D4
:1012200008584049884211D80698800002A90858F9
:101230003C4988420AD3A06A002809D100F0B8FDD1
:101240000699890004AA5158884201D201201EE55E
:1012500032484038C06840084000A16A08432F491E
:101260004039C8600846C0680C218843E16A0843D9
:101270002A494039C8600846006801210906084328
:10128000264940390860FFF7E3FA054606E0FFF714
:10129000DFFA401B022801D90320F8E41F48403838
:1012A00000680121490608400028F0D031E022E022
:1012B000FFE71A48403800680121090688431749AA
:1012C000403908600846C06840084000C860FFF721
:1012D000BFFA054606E0FFF7BBFA401B022801D91A
:1012E0000320D4E40D484038006801214906084035
:1012F0000028F0D10DE0606A012800D1C7E407485A
:101300004038C768F907C90FA06A814201D001209F
:10131000BDE40020BBE4000000700040401002402B
:101320008813000000366E0110B50446002C01D170
:10133000012010BDFF2105316068884200D101E025
:101340000021E161002161625120005D002804D18B
:1013500050200155204600F051F80221512001553E
:101360002068006840218843216808600F21090235
:10137000E068884206D007210902E068884201D06F
:1013800000216162FF21053160680840212292023C
:10139000A168114008430222216911400843217DC0
:1013A000C907C90F08431202A16911400843382236
:1013B000E169114008430122D202E168114008436B
:1013C0008022216A114008439201616A114008435A
:1013D00021680860A069000C042108402168486069
:1013E0002068C069911088432168C8610020606549
:1013F00001215120015500209BE7000010B586B067
:101400000446142101A8FEF7A4FE9E4920688842E4
:101410007ED100BF9C480068891408439A4908603F
:101420000846006889140840009000BF00BF00BF54
:1014300095484038806B01210843934940398863BF
:101440000846806BC007C00F009000BF00BF00BF00
:101450000846406B022108438B49403948630846DF
:10146000406B02210840009000BF00BF01224021D4
:101470008648FFF7E7F9382001900220029000200B
:101480000390022004900020059001A97F48FFF7F7
:10149000FFF8402001900120029003900220049068
:1014A00001A97A48FFF7F4F879487A4908601020D2
:1014B00048600021774881608021C160002101617E
:1014C0004161816101214903C161FEF7C9FF714892
:1014D000FFF790F801216F48FEF794FF00BF6D48B9
:1014E000A064446200BF6A4814306B490860002061
:1014F00048600021684881608021C160002101614D
:101500004161816101214903C161FEF7A9FF00E04A
:1015100014E06148FFF76EF802215F48FEF772FFA2
:1015200000BF5D48E064446200BF002201210A2040
:10153000FFF712FA0A20FFF7FDF9A1E057492068EA
:101540008842FAD100BF50484038C06B09140843A4
:101550004D494039C8630846C06B012189030840E2
:10156000009000BF00BF00BF47484038806B01219A
:1015700008434549403988630846806BC007C00F5F
:10158000009000BF00BF00BF0846406B0121084328
:101590003D49403948630846406BC007C00F009082
:1015A00000BF00BF0122D10305200007FFF74AF961
:1015B00000220121C90205200007FFF743F900229C
:1015C0000121490205200007FFF73CF90122110320
:1015D00005200007FFF736F9012001900220029054
:1015E00000200390022004900020059001A905200E
:1015F0000007FFF74DF801208002019000200590C0
:1016000001A905200007FFF743F84520400201909B
:101610000121090301980843019001200290002054
:1016200003900220049001A905200007FFF730F87D
:1016300017481430184908601020486000211648E7
:1016400081608021C16000210161416181610121CE
:101650004903C161FEF704FF0F48FEF7CBFF0321EA
:101660000D48FEF7CFFE00BF0B48A064446200BFE8
:10167000002201210A20FFF76FF90A20FFF75AF92B
:1016800006B010BD00300140401002400004005080
:101690001C000240140100205801002000380040C6
:1016A000FFB583B0044616461D460020029000BFD9
:1016B0005020005D012802D1022007B0F0BD0121B9
:1016C0005020015500BFFFF7C3F80746019651208F
:1016D000005D012802D002200290B9E004980028A1
:1016E00001D0002E02D101200290B1E0032151204F
:1016F0000155002060650498E06226866686002019
:10170000606320876087606420640121C903A0684A
:1017100088420CD120680068402188432168086015
:101720002068006801218903084321680860206857
:10173000006840210840402804D020680068084321
:101740002168086007210902E068884232D9606890
:10175000002802D00198012809D1E06A0088216898
:10176000C860E06A801CE062608E401E60861DE0FA
:10177000206880680221084002280AD1E06A0088B7
:101780002168C860E06A801CE062608E401E60864E
:101790000CE0FFF75DF8C01BA84202D3681C0028CC
:1017A00001D1002D02D10320029051E0608E00286B
:1017B000DED131E06068002802D00198012809D10B
:1017C000E06A007821680873E06A401CE062608E7D
:1017D000401E60861DE020688068022108400228C3
:1017E0000AD1E06A007821680873E06A401CE06270
:1017F000608E401E60860CE0FFF72AF8C01BA842EE
:1018000002D3681C002801D1002D02D103200290D0
:101810001EE0608E0028DED13A462946204600F0C0
:10182000D5FA002801D020206065A068002809D1E1
:1018300000BF00902068C068009020688068009019
:1018400000BF00BF606D002801D00120029000BFE2
:1018500001215120015500BF00215020015500BF3A
:1018600002982AE7FFB585B004461D460E9E01206A
:1018700001900020009000BF5020005D012802D19F
:10188000022009B0F0BD01215020015500BFFEF734
:10189000DFFF07465120005D0290606803900495C9
:1018A000029801280DD0FF2105310398884205D107
:1018B000A068002802D10298042802D002200090DB
:1018C000DBE00698002804D00798002801D0002DFE
:1018D00002D101200090D0E05120005D042802D008
:1018E00005215120015500206065079860636587D8
:1018F00025870698E062658625860020206460645E
:101900002068006840210840402804D02068006812
:1019100008432168086007210902E06888424FD91E
:101920006068002802D00498012809D1E06A008884
:101930002168C860E06A801CE062608E401E60869C
:1019400037E02068806802210840022811D1608EAB
:1019500000280ED0019801280BD1E06A0088216888
:10196000C860E06A801CE062608E401E60860020D5
:10197000019020688068C007C00F00280ED0608FDB
:1019800000280BD02068C068616B0880606B801CE9
:101990006063608F401E608701200190FEF758FF52
:1019A000C01BB04205D3701C002802D00320009059
:1019B00063E0608E0028C4D1608F0028C1D150E060
:1019C0006068002802D00498012809D1E06A0078F4
:1019D00021680873E06A401CE062608E401E6086E9
:1019E00039E02068806802210840022811D1608E09
:1019F00000280ED0019801280BD1E06A00782168F8
:101A00000873E06A401CE062608E401E6086002021
:101A1000019020688068C007C00F00280ED0608F3A
:101A200000280BD02068007B616B0870606B401C45
:101A30006063608F401E608701200190FEF708FF01
:101A4000C01BB04202D3701C002801D1002E02D16D
:101A50000320009011E0608E0028C2D1608F002822
:101A6000BFD13A463146204600F0B0F9002803D0F5
:101A7000012000902020606500BF01215120015508
:101A800000BF00215020015500BF0098F9E600007A
:101A900070B504462546681E0949884201D90120CF
:101AA0000CE0681E074948610321081F00F09CFEF6
:101AB00000200449886107200861002070BD0000F3
:101AC000FFFFFF0000E000E070470000FEB50446A5
:101AD000206805682068C668206847690020029071
:101AE00001902807000F0290029800280BD12020B7
:101AF0002840002807D020203040002803D020466E
:101B000000F06FFCFEBD0298002872D0F807C00FED
:101B1000002804D1FF2021303040002878D0E80789
:101B2000C00F002808D0FF2001303040002803D02B
:101B3000A06C01210843A06404202840002807D09D
:101B4000F807C00F002803D0A06C02210843A0644E
:101B500002202840002807D0F807C00F002803D033
:101B6000A06C04210843A06408202840002807D066
:101B7000F807C00F002803D0A06C08210843A06418
:101B8000A06C002843D020202840002806D0202028
:101B90003040002802D0204600F023FC2068406935
:101BA0004021084080090190A06C082108400028CD
:101BB00002D10198002825D0204600F0F1FB2068D2
:101BC000406940210840002818D0206840698843B7
:101BD00021684861206C00280CD02548216C48639E
:101BE000206CFEF7D3FB002811D0206C416B884796
:101BF0000DE00DE02046FFF767FF08E02046FFF705
:101C000063FF04E02046FFF75FFF0020A06479E750
:101C100010202840002811D01020304000280DD07E
:101C200000BF002000902068006800902068406895
:101C3000009000BF00BF204600F01CF88020284024
:101C4000002807D080203040002803D0204600F034
:101C5000DFFC57E740202840002807D040203040D4
:101C6000002803D0204600F0ACFB4BE700BF49E75B
:101C70008D230008704710B50446002C01D10120C7
:101C800010BDA069002800D000E000BF4520005D25
:101C9000002805D1002144200155204600F030F8ED
:101CA0002421452001552068C0680121490388434B
:101CB0002168C860204600F0D9FB206A002802D0C5
:101CC000204600F047FB206800690921C9028843CB
:101CD00021680861206840690821884321684861BB
:101CE0002068C0680121490308432168C8600020BA
:101CF000A064202145200155462001550020BFE762
:101D000010B586B00446142101A8FEF722FA224934
:101D1000206888423ED100BF204800680121890325
:101D200008431E49086008460068012189030840ED
:101D3000009000BF00BF00BF18484038406B022130
:101D400008431649403948630846406B0221084061
:101D5000009000BF00BF802001900220029001206F
:101D60000390022004900020059001A90C48FEF782
:101D70008FFCFF20013001900820059001A9084840
:101D8000FEF786FC012211461B20FEF7E5FD1B2015
:101D9000FEF7D0FD06B010BD0038014040100240F3
:101DA000000400507047704700BFFEE7704770475F
:101DB00004484068072252031040410B8800024A41
:101DC000105870470010024000290008F8B504467A
:101DD0000E461546334600220321C90220460095CF
:101DE00000F02AF8002805D0606D202108436065C6
:101DF0000320F8BD3346002280212046009500F0E4
:101E000099F8002805D0606D202108436065032003
:101E1000EFE733460022032149022046009500F0F7
:101E20000BF8002805D0606D202108436065032071
:101E3000DFE70020DDE70000F0B585B004460D4681
:101E400016461F4600200090FEF702FD0A99401A30
:101E5000381A0390FEF7FCFC029020680C300190C9
:101E60003348006823214843000D039948430490F8
:101E700056E003204002854206D1002E04D101988D
:101E80000178009168460078781C002848D0FEF759
:101E9000DFFC0299411A0398814202D2039800287C
:101EA00037D120684068E021884321684860FF21DD
:101EB0000531606888420ED10121C903A0688842BB
:101EC00003D04911A068884205D1206800684021EC
:101ED00088432168086001214903606A88420DD166
:101EE00000BF206800688843216808602068006897
:101EF0000121490308432168086000BF01215120E6
:101F0000015500BF00215020015500BF032005B03E
:101F1000F0BD0498002800D103900498401E04905E
:101F2000206880682840B042A3D10020EFE700007D
:101F300000000020FFB583B004460D461E46FEF7A4
:101F400087FC0C99401A371AFEF782FC01902F4843
:101F500000684001000D7843029049E0701C0028A1
:101F600046D0FEF775FC0199401AB84201D2002F05
:101F700037D120684068E021884321684860FF210C
:101F80000531606888420ED10121C903A0688842EA
:101F900003D04911A068884205D12068006840211B
:101FA00088432168086001214903606A88420DD195
:101FB00000BF2068006888432168086020680068C6
:101FC0000121490308432168086000BF0121512015
:101FD000015500BF00215020015500BF032007B06C
:101FE000F0BD0298002800D100270298401E029000
:101FF000206880682840A84201D1012100E000212A
:1020000005988142AAD10020E9E7000000000020E5
:10201000F8B507460C4615461E462A2000F060F922
:10202000384600F025F9284600F022F92B2000F070
:1020300057F9204600F01CF9304600F019F92C2021
:1020400000F04EF9F8BD10B501225102052000073D
:10205000FEF7F8FB0122D10305200007FEF7F2FB93
:1020600000220121C90205200007FEF7EBFB012237
:10207000110305200007FEF7E5FB0520FEF7F2FA45
:1020800000220121090305200007FEF7DBFB1420D5
:10209000FEF7E8FA0122110305200007FEF7D2FB44
:1020A0007820FEF7DFFA012000F01AF97820FEF719
:1020B000D9FA112000F014F97820FEF7D3FA3A206B
:1020C00000F00EF9552000F012F9B22000F008F9E6
:1020D0000C2000F00CF90C2000F009F9002000F0B1
:1020E00006F9332000F003F9332000F000F9B7209F
:1020F00000F0F6F8352000F0FAF8BB2000F0F0F818
:10210000322000F0F4F8C22000F0EAF8012000F0DC
:10211000EEF8C32000F0E4F8192000F0E8F8C4203D
:1021200000F0DEF8202000F0E2F8C62000F0D8F839
:102130000F2000F0DCF8D02000F0D2F8A42000F04E
:10214000D6F8A12000F0D3F8E02000F0C9F8D020A4
:1021500000F0CDF8082000F0CAF80E2000F0C7F813
:10216000092000F0C4F8092000F0C1F8052000F0B3
:10217000BEF8312000F0BBF8332000F0B8F848205A
:1021800000F0B5F8172000F0B2F8142000F0AFF816
:10219000152000F0ACF8312000F0A9F8342000F050
:1021A000A6F8E12000F09CF8D02000F0A0F808206C
:1021B00000F09DF80E2000F09AF8092000F097F842
:1021C000092000F094F8152000F091F8312000F07B
:1021D0008EF8332000F08BF8482000F088F81720A4
:1021E00000F085F8142000F082F8152000F07FF848
:1021F000312000F07CF8342000F079F8212000F044
:102200006FF8362000F06CF8002000F070F800F055
:102210005FF8292000F064F81420FEF723FA10BDBF
:1022200013B50C4600220121C90305200007FEF763
:1022300009FB012C06D10122D10205200007FEF77F
:1022400001FB06E000220121C90205200007FEF77C
:10225000F9FA6423012269460448FFF721FA0122B2
:10226000D10305200007FEF7EDFA1CBD6400002035
:1022700038B504462112684601704470022100F00E
:1022800001F838BD70B505460C46002D01D0002C74
:1022900000D170BD00220121C90305200007FEF70F
:1022A000D1FA0122D10205200007FEF7CBFA7D23E7
:1022B000DB00224629460548FFF7F2F90122D10347
:1022C00005200007FEF7BEFA00BFE2E76400002029
:1022D00010B5EF231A4600210846FFF799FE10BDFE
:1022E00010B5044600212046FFF79AFF10BD10B537
:1022F000044601212046FFF793FF10BD704710B53B
:10230000FEF7ACFA10BD00000E484068000C000457
:102310000D49898801225203114389B208430949B2
:102320004860084640680949084007498031098EDD
:10233000C905C909084303494860C80304498860BE
:102340007047000000100240000FFF1FFFFF00FE5B
:1023500000ED00E04022016A1140002915D001681B
:10236000496992019143426A114302685161012215
:102370001203416A914208D101684969032252035C
:102380009143826A114302685161704770B50546F6
:102390006C6A0020608760862046FFF795FB70BD61
:1023A0000168C968FF22213291430268D160016847
:1023B00049694908490002685161202246210A54AE
:1023C000704710B504462068C068402188432168E2
:1023D000C8602021452001552046FFF7E4FC00207D
:1023E00010BD70B504464620005D22283BD1012176
:1023F0000903A06888420CD12069002809D1656BC7
:1024000020684068C005C00D2880606B801C606338
:1024100006E020684068C1B2626B501C60631170B6
:10242000608F401E80B2608700281AD12068C06883
:10243000202188432168C8602068C068FF210131DD
:1024400088432168C86020684069400840002168CE
:1024500048612021462001552046FFF7A3FC0020BB
:1024600070BD0020FCE70220FAE70000FEB504463C
:1024700020680069012149038843E1680843216815
:1024800008612169A06808436169084302902068D7
:10249000C0685E490840029908432168C860E06945
:1024A0000290206840690121C902884302990843CB
:1024B0002168486120684069032109028843A169B5
:1024C0000843216848610121C902E06988424ED170
:1024D000FEF73CFB05466268510019226A4310462C
:1024E000FDF708FE06466421FDF704FE0701626859
:1024F000510019226A431046FDF7FCFD064662684A
:10250000510019226A431046FDF7F4FD6421009042
:10251000FDF7F0FD64214843301AC00032300190CD
:10252000FDF7E8FDF821084040003F1862685100BF
:1025300019226A431046FDF7DDFD06466268510028
:1025400019226A431046FDF7D5FD64210090FDF77E
:10255000D1FD64214843301AC00032300190FDF7AC
:10256000C9FD4007400F3818216888604CE0FEF72D
:10257000EDFA05466268910019226A431046FDF79C
:10258000B9FD06466421FDF7B5FD070162689100BB
:1025900019226A431046FDF7ADFD064662689100B8
:1025A00019226A431046FDF7A5FD64210090FDF74E
:1025B000A1FD64214843301A000132300190FDF73B
:1025C00099FDF02108403F186268910019226A4382
:1025D0001046FDF78FFD06466268910019226A4396
:1025E0001046FDF787FD64210090FDF783FD64210F
:1025F0004843301A000132300190FDF77BFD00079F
:10260000000F381821688860FEBD0000F3E9FFFF65
:1026100010B501464520405C212830D10124240317
:102620008868A0420ED1086900280BD1CA6A0868E0
:1026300000681088C005C00D0C686060C86A801C06
:10264000C86208E0CB6A0868006818780C686060A7
:10265000C86A401CC862488E401E80B24886002866
:102660000BD10868C0688024A0430C68E06008684B
:10267000C068402420430C68E060002010BD0220A8
:10268000FCE7000010B50248FFF720FA10BD00007B
:10269000180000200246D1B20120C005142904D33D
:1026A0001F2902D801238B40184601231B0698429C
:1026B00000D918467047000010B517481749086040
:1026C000FF2005304860002114488160072109027D
:1026D000C160002101614161012149028161002144
:1026E000C1610162416207218162FEF71DFE00287F
:1026F00001D0FDF74BFD012240210948FEF7A2F869
:1027000000F014F80749088000F034F80446FFF799
:10271000C1FF0549086010BD00300140BC00002029
:1027200000040050040000200800002010B5002420
:10273000002240210E48FEF785F8902000F044F872
:10274000002000F041F8002000F03EF8002000F0EA
:102750003BF8FF2000F038F80402FF2000F034F8C6
:102760000443012240210248FEF76CF8204610BDC8
:10277000000400503EB5002410A000680290002222
:1027800040210F48FEF75EF86420042301AA02A945
:1027900000900C48FFF766F8012240210848FEF738
:1027A00051F8684640790404684680790002044381
:1027B0006846C079044320463EBD00009FFFFFFFEE
:1027C00000040050BC00002001B582B06420012349
:1027D00001AA02A900900348FFF744F8684600796F
:1027E0000EBD0000BC00002010B5002819DB1A4AFD
:1027F00003231B02D21883089B00D2588307DC0EE8
:10280000FF23A3409A438B071B0E8407E40EA340CB
:102810001A43114B032424021B198408A4001A51E3
:1028200018E00E4A03071B0F083B9B089B00D25879
:102830008307DC0EFF23A3409A438B071B0E8407FC
:10284000E40EA3401A43054B0407240F083CA408D8
:10285000A4001A5110BD000000E100E01CED00E0F2
:1028600002E008C8121F08C1002AFAD17047704759
:10287000002001E001C1121F002AFBD17047FDF7C3
:10288000F9FFFDF71DFDFFF717FFFDF753FDFDF7FE
:102890007FFCFDF7F1FCFFF7D6FB00BFFEE7000071
:1028A0000000000000000000000000000000000028
:1028B0000000000000000000000000000000000018
:1028C00001000000020000000300000004000000FE
:1028D00006000000070000000800000009000000DA
:1028E00000000000000000000000000000000000E8
:1028F00001000000020000000300000004000000CE
:1029000000093D0000127A000024F40040865101C5
:1029100000366E0100093D0000093D0000093D0040
:1029200000140050010000000014005002000000DC
:1029300000140050080000000000005002000000D9
:1029400000000050040000000004005002000000DD
:102950000024F40080B14F0100366E0100366E0194
:1029600000093D0000127A000024F4004086510165
:1029700000366E01020000000300000002000000AB
:1029800002000000A4290008000000201800000038
:1029900060280008BC2900081800002088050000F5
:1029A0007028000800127A0000000000000080007B
:0C29B00000000000040000000100000016
:04000005080000C12E
:00000001FF
