:020000040800F2
:1000000080170020D9000008013C0008BD2F00081F
:1000100000000000000000000000000000000000E0
:10002000000000000000000000000000E948000897
:100030000000000000000000033C0008EB4800083E
:10004000EB000008EB000008EB000008EB000008E4
:10005000EB000008EB000008EB000008EB000008D4
:10006000EB000008D10B0008E10B000800000000C5
:10007000EB000008EB000008EB000008EB000008B4
:1000800000000000EB00000800000000EB0000088A
:1000900000000000EB000008EB000008EB00000887
:1000A000EB000008EB000008EB000008714C0008B2
:1000B000EB000008EB000008EB000008EB00000874
:1000C0000448854600F050F800480047F34E000809
:1000D000C046C046801700200448804704480047B7
:1000E000FEE7FEE7FEE7FEE7FEE7FEE7F54800086D
:1000F000C100000830B50B46014600202022012433
:1001000009E00D46D5409D4205D31D469540491B4B
:100110002546954040191546521E002DF1DC30BD94
:1001200003460B439B0703D009E008C9121F08C010
:10013000042AFAD203E00B780370401C491C521EBB
:10014000F9D27047D2B201E00270401C491EFBD2C6
:1001500070470022F6E710B513460A4604461946D2
:10016000FFF7F0FF204610BD064C0125064E05E0C6
:10017000E36807CC2B430C3C98471034B442F7D3C8
:10018000FFF7A2FF485500086855000800BFFEE7CA
:1001900010B586B0142101A8FFF7DBFF00BF2C4883
:1001A000406B012108432A4948630846406BC00759
:1001B000C00F009000BF00BF00BF0846406B022187
:1001C0000843234948630846406B022108400090D9
:1001D00000BF00BF00BF1E48406B202108431C49E0
:1001E00048630846406B20210840009000BF00BFD4
:1001F000112002900120039002200490002422E0AC
:10020000200114494018808801902101114A50585A
:1002100001A900F001FF20010E49401880890190DA
:1002200021010C4A8918886801A900F0F5FE210116
:10023000084A881800F000F92101064A881800F0E1
:10024000DCF8601CC4B2032CDAD306B010BD000089
:1002500000100240984F0008FFB581B004460D46DB
:100260001E460A9F032C05D27F2D03D8002E01D0F5
:10027000002F02D1012005B0F0BD2101044A8818E9
:10028000334600972946039A00F05CF9F3E7000033
:10029000984F000808B57820009000E000BF009853
:1002A000411E00910028F9D108BD70B505462846C9
:1002B00000F0C2F8284600F0A0F8002801D0032082
:1002C00070BDFFF7E7FF284600F08CF8002801D04A
:1002D0000020F5E7002415E0284600F0A5F8FFF718
:1002E000D9FF284600F089F8002801D00320E7E76D
:1002F000FFF7D0FF284600F075F8002800D003E093
:10030000601CC4B2092CE7D300BF284600F0BCF83B
:10031000002801D00320D3E7284600F063F8002826
:1003200004D0284600F053F8002801D10320C7E785
:100330000020C5E7F8B507460E461446002C01D14B
:100340000120F8BD00202070384600F075F8002527
:100350001CE020784006000E2070FFF79BFF384617
:1003600000F04BF8002801D00320EAE7FFF792FFE6
:10037000384600F037F8002803D0207801210843E0
:100380002070384600F050F8681CC5B2082DE0D344
:10039000002E03D0384600F057F802E0384600F04F
:1003A0004BF8FFF777FF384600F027F8002804D015
:1003B000384600F041F80320C3E7FFF76BFF3846EB
:1003C00000F032F8384600F037F80020B9E710B5F1
:1003D0000446A189A06800F0F9FE012800D110BDF3
:1003E0000020FCE710B50446A188206800F0EEFE6E
:1003F000012800D110BD0020FCE770B504467D2522
:10040000ED00A1890122A06800F0E9FE06E0204687
:10041000FFF7DDFF002801D0002070BD28466D1ECB
:100420000028F4D10320F8E710B50446A189002282
:10043000A06800F0D4FE10BD10B50446A1880122CA
:10044000206800F0CCFE10BD10B50446A188002243
:10045000206800F0C4FE10BD10B504462046FFF72A
:10046000EBFF2046FFF7C9FF002801D0032010BD95
:10047000FFF710FF2046FFF7E7FFFFF70BFF2046CF
:10048000FFF7D2FF0020F2E710B504462046FFF741
:10049000DBFFFFF7FFFE2046FFF7AFFF002804D089
:1004A0002046FFF7C9FF032010BDFFF7F3FE2046EB
:1004B000FFF7C2FFFFF7EEFE0020F5E7F8B50646AE
:1004C0000C4600251CE080202040002803D0304648
:1004D000FFF7B2FF02E03046FFF7B6FFFFF7DAFEA4
:1004E0003046FFF78AFF002801D00320F8BDFFF750
:1004F000D1FE3046FFF798FF6006040E681CC5B2B7
:10050000082DE0D33046FFF797FFFFF7C3FE3046D4
:10051000FFF773FF002801D00320E7E7FFF7BAFEDB
:100520003046FFF75FFF002801D1012000E00020E6
:1005300007463046FFF778FF002F01D10120D5E7AD
:100540000020D3E7FFB583B00E4617467006000EB5
:10055000029001210298084301900398FFF7A5FE3D
:100560000446002C02D0204607B0F0BD0398FFF7E8
:1005700073FF0446002C01D02046F5E7029903984A
:10058000FFF79CFF0446002C04D139460398FFF77F
:1005900095FF0446002C03D10398FFF75DFF044646
:1005A000002C04D101990398FFF788FF0446002C22
:1005B00004D00398FFF768FF2046D5E7002517E031
:1005C000681C0C99884201D2012000E000200090B4
:1005D0000698421900990398FFF7ACFE0446002CD8
:1005E00004D00398FFF750FF2046BDE7681C85B292
:1005F0000C988542E4DB0398FFF746FFB4E7000060
:10060000424803F069F900F0A9F900204049086068
:1006100002F06AFF03F010F903F02AF900203D49C7
:1006200008703D4908603D490880FF203C4908703A
:1006300000203C4908603C49087001203B49087093
:1006400000203B49086003F067F800203749087034
:100650007D20400100F0CAFC012033490870334975
:10066000087052E02D48048800F0C0FD054600F0F7
:1006700099F903F08DF9254803F070FA2349487C75
:1006800003F084FA28480078042806D1234800881B
:10069000844202D0002003F0C3F902F05BFF00287F
:1006A00001D002F087FF20480078012802D103F032
:1006B00033F82AE01C48007803280CD11349087C41
:1006C00003F0A2F9054616480078854202D00120C1
:1006D0001649087000BF14480078022808D10B485A
:1006E000406910490968884202D0002003F0DCF913
:1006F0000E480078002804D003F00EF800200B49C3
:100700000870052000F072FC00BFABE7700100200C
:10071000400000201C0000202000002024000020B9
:100720003A0000203C0000200C0000200D000020BA
:100730001000002070B50546002D00D170BD0024CA
:100740000CE012206043421902233021204600F0C1
:1007500079F9002800D1F1E7601CC4B2042CF0D371
:1007600000240DE0122060434019821C0723102151
:10077000204600F067F9002800D1DFE7601CC4B212
:10078000042CEFD300240EE01220604340190246EF
:10079000093207231121204600F054F9002800D126
:1007A000CCE7601CC4B2042CEED300240EE012206F
:1007B000604340190246103202232021204600F0F7
:1007C00041F9002800D1B9E7601CC4B2042CEED373
:1007D0000120B3E7F0B589B006460D4600246DE070
:1007E000122060438019007C089029463031089817
:1007F00008553420415D0898814202DA3421089876
:100800004855002756E0062060432E494018C05D39
:100810000790062060434018801CC05D06900620AB
:1008200060434018001DC05D059012206043305C9D
:1008300006990840002801D0012000E00020049023
:100840000799049868540498002831D01221614314
:100850008919891C059A881800F09EF803901221C6
:10086000614389190931059A881800F095F80290BA
:10087000029A0399514308461349FFF73BFC019044
:1008800001988C2801D98C20019007994A002946AB
:1008900008310398885207994A002946183102986E
:1008A00088520198C2B2284628300799425400BFA6
:1008B000781CC7B2022FA6D3601CC4B2042C8FD3FD
:1008C00009B0F0BDCC4F000840420F0030B50446DF
:1008D0002546002901D0022A01D2002030BD002384
:1008E00004E0C85C4019C5B2581C83B2501E98423F
:1008F000F7D8085CA84201D10120EFE70020EDE71E
:1009000010B5002800D110BD00210DE00022425496
:1009100000234C000246083213534C00103213538C
:10092000103253544A1CD1B20829EFD3002105E0FC
:1009300000230246303253544A1CD1B20429F7D363
:100940000023342213543522135400228263C263DD
:1009500000BFD8E7004870471801002010B50A48CA
:10096000FFF7CEFF00200949086048608860C86032
:100970000861087548758875C875054908600120C3
:100980000449087010BD0000180100205801002023
:100990000400002008000020014608784A7812026E
:1009A0001043704710B5A2B00446224800780028D2
:1009B00009D121480068201AFF21F531884202D26E
:1009C000002022B010BD00201A4908701A480460A7
:1009D0001A480068401C1949086010A8FFF7AAFED1
:1009E000002806D115488068401C14498860002002
:1009F000E7E76846FFF784FF694610A8FFF7EAFEBD
:100A0000012008A948750E48806B401C0E900F9479
:100A1000402269460A48FFF783FB08484068401CAB
:100A20000649486000200875487588750120C8751A
:100A300000BFC6E708000020040000205801002085
:100A400018010020FFB583B00C4615461E460398DA
:100A5000042803D2002D01D0022E02D2002007B0BC
:100A6000F0BD19490398085C02902B462246009677
:100A700000200299FFF7F0FB074614488775002F06
:100A80000BD00069401C114908610298087508469E
:100A900044750220C8750020E1E732462946204609
:100AA000FFF714FF00280CD10848C068401C074914
:100AB000C86002980875084644750320C875002070
:100AC000CDE70120CBE70000C84F00085801002007
:100AD00010B5104810490860FF200530486000211B
:100AE0000D48816007210902C16000210161416157
:100AF0000121490281610821C16100210162416235
:100B00000721816201F0EEF9002801D0FFF73EFBDA
:100B100010BD000000380040C000002000B591B0BA
:100B2000302105A8FFF715FB0020019002900390EB
:100B3000049002200590C0010A9000200B901348F9
:100B4000008AC004C00C0121C90308430C90022094
:100B50000E9000210F910421109105A800F056FD80
:100B6000002801D0FFF712FB07200190022002901D
:100B7000002003900490022101A800F0C5FB00288A
:100B800001D0FFF703FB11B000BD0000000FFF1FF5
:100B900010B50D480D490860E12040024860002171
:100BA0000A488160C16001610C21416100218161BD
:100BB000C161002005490862084602F066F9002874
:100BC00001D0FFF7E3FA10BD0038014074000020A7
:100BD00010B5024800F0F0F810BD0000B802002087
:100BE00010B5034800F0E8F8024800F0E5F810BD41
:100BF000300200207402002030B50124056CAC40A6
:100C0000C56B6C60046863604468102C04D1046890
:100C1000A2600468E16003E00468A1600468E26027
:100C200030BD014600222120405C022808D004206B
:100C3000886300BF00232020435400BF0120704779
:100C4000086800680E2398430B68186008680068FD
:100C5000400840000B68186001200B6C9840CB6B7B
:100C6000586001232120435400BF00232020435417
:100C700000BF1046E3E7000070B5044600252120C0
:100C8000005D022803D00420A06301252BE020682A
:100C900000680E21884321680860206800684008C9
:100CA00040002168086011492068884201D1012074
:100CB00008E00E4914312068884201D1102001E07B
:100CC000FF200130094908394860012121200155E0
:100CD00000BF00212020015500BF606B002802D01A
:100CE0002046616B8847284670BD0000080002401E
:100CF000F8B504460D463F27114A2168881A142189
:100D0000FFF7F8F9064600BF0E48006801210843C6
:100D10000C49086008460068C007C00F009000BF7B
:100D200000BF09488068B107CA0E39469140884320
:100D3000B107CA0E29469140084303498860F8BDAF
:100D400008000240401002400000014010B5044677
:100D5000002C01D1012010BD20680068400840002F
:100D600021680860002021680860216848602168C7
:100D700088602168C8600F4A2168881A1421FFF72B
:100D8000B9F9800020640B480838E0630120216C29
:100D90008840E16B48600020A062E06220636063ED
:100DA000A06300212120015500BF2020015500BF74
:100DB0000020D0E70800024070B50446E06B0568EB
:100DC000206806680420216C88402840002828D02C
:100DD00004203040002824D02068006820210840EA
:100DE000002805D120680068042188432168086034
:100DF0003A492068884201D1042008E0374914317B
:100E00002068884201D1402001E00120800233495E
:100E100008394860E06A00285FD02046E16A8847C8
:100E20005BE00220216C88402840002830D002205E
:100E3000304000282CD0206800682021084000287D
:100E400008D1206800680A218843216808600121D0
:100E50002120015521492068884201D1022008E063
:100E60001E4914312068884201D1202001E0012070
:100E700040021A490839486000BF0021202001556E
:100E800000BFA06A002828D02046A16A884724E035
:100E90000820216C8840284000281ED008203040BF
:100EA00000281AD0206800680E2188432168086055
:100EB0000120216C8840E16B48600120A063012182
:100EC0002120015500BF00212020015500BF206BCB
:100ED000002802D02046216B884770BD08000240E0
:100EE00070B504460025002C01D1012070BD164AC2
:100EF0002168881A1421FFF7FDF880002064124849
:100F00000838E063022121200155206805680F4858
:100F10000540A16860680843E16808432169084307
:100F200061690843A1690843E169084305432068F2
:100F300005600020A063012121200155002120200F
:100F400001550020D2E70000080002400FC0FFFF5B
:100F5000F8B504460D4616461F460020009000BF17
:100F60002020005D012801D10220F8BD01212020B0
:100F7000015500BF2120005D01282DD10221212033
:100F800001550020A06320680068400840002168E7
:100F900008603B46324629462046FFF72DFEE06AB0
:100FA000002806D0206800680E21084321680860E8
:100FB0000BE02068006804218843216808602068ED
:100FC00000680A2108432168086020680068012140
:100FD00008432168086006E000BF00212020015579
:100FE00000BF022000900098BFE7000070B50446E3
:100FF00000F0FCF806462546681C002802D005488B
:1010000000682D1800BF00F0F1F8801BA842FAD349
:1010100070BD00007000002070B503460022CBE0D8
:10102000012696400C683440002C71D04D68022D8A
:1010300002D04D68122D15D1D508AE001D462035C1
:10104000A8595507EE0E0F25B5400646AE4330466B
:101050005607F60E0D69B5402843D508AD001E466B
:1010600020367051186856000325B5400646AE4339
:1010700030460D79AD07AD0F5600B54028431860D6
:101080004D68012D08D04D68022D05D04D68112DF9
:1010900002D04D68122D18D1986856000325B5402E
:1010A0000646AE4330465600CD68B54028439860AA
:1010B0005868012595400646AE43304610264D68D7
:1010C00035402D09954028435860D86856000325BF
:1010D000B5400646AE43304656008D68B5402843BD
:1010E000D860012636074D683540B54263D1354D8D
:1010F0009608B600A8599507EE0E0F25B54006468E
:10110000AE43304605252D07AB4202D1002506E04F
:1011100051E02D4DAB4201D1012500E0022596079B
:10112000F60EB5402843274D9608B600A851254D28
:10113000203528680546A5432846012636044D6813
:101140003540B54202D10546254328461D4D203580
:10115000286068680546A5432846012676044D6840
:101160003540B54202D1054625432846154D203568
:101170006860144D603D28680546A5432846012651
:1011800036054D683540B54202D10546254328460F
:101190000C4D603D286068680546A5432846012639
:1011A00076054D683540B54202D1054625432846AF
:1011B000044D603D6860521C0D68D540002D00D084
:1011C0002EE770BD6018024000040050024613690B
:1011D0000B40002B01D0012000E000207047002AC6
:1011E00001D0816100E08162704700000148006821
:1011F0007047000068000020034800680349096840
:101200004018014908607047680000207000002005
:1012100010B50024032000F009F8002801D00124B3
:1012200001E000F033F8204610BD0000F8B5044698
:1012300000251348006800281ED0114801687D2051
:10124000C000FEF757FF074639460E480068FEF714
:1012500051FF064601F026FD00280BD1042C07D2D1
:1012600000222146401E00F045F80748046004E0D3
:10127000012502E0012500E001252846F8BD000017
:1012800070000020000000206C00002008B500BFA6
:101290000E480068012108430C49086008460068B0
:1012A000C007C00F009000BF00BF00BF0748403814
:1012B000C06B8905084305494039C8630846C06BBF
:1012C00009040840009000BF00BF08BD4010024064
:1012D0000146002909DB00BF00BFCB06DB0E01225F
:1012E0009A40034B1A6000BF00BF00BF7047000068
:1012F00000E100E070B504460D461646294620463A
:1013000003F0ACFD70BD000070B504460D46002C26
:1013100001D1012070BD6B4800688007800FA84292
:1013200018D2684800688008800028436549086032
:10133000FFF75CFF064607E0FFF758FF801B624996
:10134000884201D90320E5E75E4800688007800FE6
:10135000A842F1D1022120680840022815D10421B9
:1013600020680840042807D15848806807210903ED
:101370008843401855498860544880680F21090205
:101380008843A1680843514988602078C007C00F8E
:10139000002854D06068012808D14C480068012119
:1013A0004904084000282ED10120B3E760680028D6
:1013B00008D146480068012189020840002822D14E
:1013C0000120A7E76068022808D140480068012191
:1013D00049060840002816D101209BE760680428D0
:1013E00008D13A484030C0690221084000280AD19B
:1013F00001208FE735484030006A0221084000286C
:1014000001D1012086E731488068C008C0006168CA
:1014100008432E498860FFF7E9FE064607E0FFF71C
:10142000E5FE801B2849884201D9032072E727483E
:101430008068382108406168C9008842EFD121489E
:1014400000688007800FA84218D91E4800688008ED
:10145000800028431B490860FFF7C8FE064607E0E6
:10146000FFF7C4FE801B1849884201D9032051E7C9
:10147000144800688007800FA842F1D10421206839
:101480000840042808D111488068072109038843CF
:10149000E16808430D49886000F03AF80B49896813
:1014A0000F2212021140090A8900094A515CC9063B
:1014B000C90EC8400749086007480068FFF7B6FE34
:1014C00028E70000002002408813000000100240BE
:1014D000184F0008000000206C0000200148006840
:1014E000704700000000002000B5FFF7F7FF064935
:1014F0008968072212031140090B8900034A515CD5
:10150000C906C90EC84000BD00100240584F00086F
:10151000F0B58BB014223A4905A8FEF701FE384811
:10152000143001460EC9C06801AC0EC404903548A1
:10153000806838210840002818D132480068090224
:101540000840C10A012088400A902E4840680721BF
:1015500049030840450B042D00D90025A90005AA20
:1015600050580A99FEF7C6FD044645E025488068B4
:1015700038210840082801D1234C3DE021488068EB
:1015800038210840102825D11E48C068C707FF0F22
:101590001C48C0680C2108408008800001A90E5832
:1015A000002F05D0012F11D117483446444310E0D5
:1015B00014484068072149030840450B042D00D911
:1015C0000025A80005A90C58744302E0059C74434B
:1015D00000BF11E00B48806838210840202801D165
:1015E000840209E00748806838210840182802D1A1
:1015F0000124E40300E0002420460BB0F0BD00000D
:10160000245500080010024000366E01F0B587B086
:101610000446F94903C905910490F749083103C903
:1016200003910290002C02D1012007B0F0BD207878
:10163000C007C00F00287DD0F048866838210E40D2
:10164000C068C707FF0F102E01D1012F01D0082E4F
:101650000BD1EA4800680121490408400028EAD07B
:101660006068002866D10120DFE7606800282FD07D
:1016700000BFE2480068012109048843DF4908608F
:1016800008460068012189048843DC49086000BFDE
:10169000FFF7ACFD054606E0FFF7A8FD401BC82894
:1016A00001D90320C1E7D548006801214904084059
:1016B0000128F1D0A068002808D0D048006980082F
:1016C0008000A1680843CD49086101E00120ACE732
:1016D00000BF012109046068884205D1C74800683D
:1016E0000843C649086021E0052109046068884272
:1016F0000ED1C2480068012189040843BF4908602F
:1017000008460068012109040843BC4908600DE04F
:10171000BA480068012109048843B84908600846AE
:101720000068012189048843B449086000BF6068EB
:10173000002800E025E012D0FFF758FD054606E03E
:10174000FFF754FD401BC82801D903206DE7AB48C3
:1017500000680121490408400028F1D011E0FFF79A
:1017600045FD054606E0FFF741FD401BC82801D9AD
:1017700003205AE7A14800680121490408400028D5
:10178000F1D1022120680840022874D19B4880686A
:101790003821084006469948C068C707FF0F102E39
:1017A00001D1002F01D0002E48D1944800680121BA
:1017B00089020840002804D06069002801D1012076
:1017C00033E78E484068000C0004E16908438B4908
:1017D0004860FFF70BFD054606E0FFF707FD401BDD
:1017E000022801D9032020E78448006801218902EA
:1017F00008400028F1D0002E18D180480068072149
:10180000C9028843A16908437C490860FFF780FE4C
:101810007A4989680F2212021140090A8900784A20
:10182000515CC906C90EC840764908607648006810
:10183000FFF7FCFC002848D00120F6E6606900288C
:101840002AD06E4800680721C9028843A16908436D
:101850006A490860084600688915084367490860B6
:10186000FFF7C4FC054607E0FFF7C0FC401B022859
:1018700002D90320D9E628E06048006801218902E6
:1018800008400028F0D05D484068000C0004E16981
:1018900008435A49486018E058480068FF21013160
:1018A000884356490860FFF7A1FC054606E0FFF7AC
:1018B0009DFC401B022801D90320B6E64F48006872
:1018C0000121890208400028F1D108212068084040
:1018D000082849D1494880683821084018280BD188
:1018E00046484030006A0221084000283CD0206A67
:1018F000002839D1012098E6206A00281AD03F48F4
:101900004030006A012108433C4940310862FFF73A
:101910006DFC054606E0FFF769FC401B022801D973
:10192000032082E635484030006A02210840002842
:10193000F1D019E031484030006A400840002F499A
:1019400040310862FFF752FC054606E0FFF74EFC07
:10195000401B022801D9032067E628484030006A6E
:10196000022108400028F1D1042120680840042801
:1019700072D1002001902148806838210840202839
:101980000BD11E484030C0690221084000287BD09E
:10199000E068002878D1012047E61848C06B010FA5
:1019A00001208843002810D000BF1448C06B0121DB
:1019B000090708431149C8630846C06B0904084079
:1019C000009000BF00BF0120019010480068FF2177
:1019D00001310840002822D10C48006808430B4917
:1019E0000860FFF703FC054612E0FFF7FFFB401B12
:1019F00002280DD9032018E61455000800100240F3
:101A0000184F0008000000206C000020007000400B
:101A1000A8480068FF21013108400028E5D0E068AF
:101A200000283DD000BFA448C06940084000A2493A
:101A3000C8610846C069042188439F49C86100BF46
:101A4000FFF7D4FB054608E0FFF7D0FB401B9B499E
:101A5000884202D90320E8E57EE09748C069022168
:101A600008400128F0D0032109042069084000281B
:101A70000BD191484038006988430121490441183D
:101A80008D48403801610BE065E08B4840380069C3
:101A900003210904884321690843874940390861C3
:101AA00000BFE068012806D18348C06901210843CE
:101AB0008149C8611AE0E06805280CD17E48C069F8
:101AC000042108437C49C8610846C06901210843D4
:101AD0007949C8610AE07848C069410849007648F8
:101AE000C161C069042188437349C86100BFE068CF
:101AF000002812D0FFF77AFB054607E0FFF776FBD8
:101B0000401B6E49884201D903208EE56A48C069AE
:101B1000022108400028F1D011E0FFF767FB0546DD
:101B200007E0FFF763FB411B6448814201D90320B2
:101B30007BE56148C069022108400028F1D1019885
:101B4000012808D15C484038C06B0121090788434F
:101B500059494039C86300BF606A002874D05648AC
:101B6000403880683821084010286ED0606A02280A
:101B70006DD15148403800680121090688434E491B
:101B800040390860FFF732FB054606E0FFF72EFB01
:101B9000401B022801D9032047E547484038006828
:101BA0000121490608400028F0D1E06A800806902B
:101BB000A06A01280DD10698800004A90858404960
:101BC000884211D80698800002A908583C498842EA
:101BD0000AD3A06A002809D102F014F806998900F6
:101BE00004AA5158884201D201201EE532484038EB
:101BF000C06840084000A16A08432F494039C860C6
:101C00000846C0680C218843E16A08432A494039E4
:101C1000C860084600680121090608432649403982
:101C20000860FFF7E3FA054606E0FFF7DFFA401B1E
:101C3000022801D90320F8E41F4840380068012138
:101C4000490608400028F0D031E022E0FFE71A48BA
:101C50004038006801210906884317494039086067
:101C60000846C06840084000C860FFF7BFFA054654
:101C700006E0FFF7BBFA401B022801D90320D4E499
:101C80000D48403800680121490608400028F0D17D
:101C90000DE0606A012800D1C7E407484038C768F2
:101CA000F907C90FA06A814201D00120BDE40020DC
:101CB000BBE40000007000404010024088130000A8
:101CC00000366E01FEB504460025182170480068F4
:101CD000FEF710FA06467D21C900FEF70BFA6421D3
:101CE0004843019001980290206840682021884371
:101CF000216848602068406880210840002814D08E
:101D00006448606400BF0298002804D1606D4021DF
:101D10000843606506E00298401E02905120005D75
:101D20000728F0D100BF0198029020684068402148
:101D30000840002814D05848206400BF02980028AA
:101D400004D1606D40210843606506E00298401EA2
:101D500002905120005D0728F0D100BF0198029049
:101D60002068406802210840002833D0A06C002879
:101D700030D00020A16C4863A06CFEF752FF002811
:101D800001D04020606520684068022188432168B6
:101D90004860FFF72BFA064632466421204602F0DF
:101DA0003FF9002801D0402060652068006840218C
:101DB000884321680860FFF719FA06466423002269
:101DC000032149020090204602F060F9002801D06A
:101DD0004020606520684068C007C00F002835D0EB
:101DE000E06C002832D00020E16C4863E06CFEF724
:101DF00018FF002801D0402060652068006840215D
:101E0000884321680860FFF7F1F906466423002241
:101E100080210090204602F0B7F9002801D0402030
:101E20006065FFF7E3F906466423002203214902B7
:101E30000090204602F02AF9002801D04020606579
:101E400020684068400840002168486000206087A2
:101E50006086606D402801D1012501E000206065A9
:101E600000BF002000902068C06800902068806853
:101E7000009000BF00BF00BF002000902068806875
:101E8000009000BF00BF0121512001552846FEBD32
:101E900000000020C53C0008213C00080A49884297
:101EA00005D10121094A1170094A11700BE0094955
:101EB000884208D108490978002904D00121074A3D
:101EC0001170074A11707047C000002061000020A7
:101ED00060000020D8010020620000206500002082
:101EE0006400002010B50446002C01D1012010BD73
:101EF000FF2105316068884200D101E00021E161E5
:101F0000002161625120005D002804D1502001555C
:101F1000204600F051F80221512001552068006848
:101F200040218843216808600F210902E068884247
:101F300006D007210902E068884201D000216162D1
:101F4000FF2105316068084021229202A1681140FA
:101F500008430222216911400843217DC907C90FA6
:101F600008431202A169114008433822E169114077
:101F700008430122D202E168114008438022216A0D
:101F8000114008439201616A1140084321680860CA
:101F9000A069000C04210840216848602068C069DD
:101FA000911088432168C86100206065012151209B
:101FB000015500209BE7000010B586B004461421AF
:101FC00001A8FEF7C6F89E49206888427ED100BF6E
:101FD0009C480068891408439A49086008460068CC
:101FE00089140840009000BF00BF00BF95484038EA
:101FF000806B012108439349403988630846806B10
:10200000C007C00F009000BF00BF00BF0846406B74
:10201000022108438B49403948630846406B02213E
:102020000840009000BF00BF012240218648FFF712
:10203000D6F8382001900220029000200390022060
:1020400004900020059001A97F48FEF7E5FF40209D
:1020500001900120029003900220049001A97A4887
:10206000FEF7DAFF79487A490860102048600021BD
:10207000774881608021C1600021016141618161F7
:1020800001214903C161FEF761FE7148FEF728FF97
:1020900001216F48FEF72CFE00BF6D48A06444622A
:1020A00000BF6A4814306B49086000204860002176
:1020B000684881608021C1600021016141618161C6
:1020C00001214903C161FEF741FE00E014E06148CF
:1020D000FEF706FF02215F48FEF70AFE00BF5D48DB
:1020E000E064446200BF002201210A20FFF702F9E8
:1020F0000A20FFF7EDF8A1E0574920688842FAD19D
:1021000000BF50484038C06B091408434D4940395E
:10211000C8630846C06B012189030840009000BFD6
:1021200000BF00BF47484038806B01210843454944
:10213000403988630846806BC007C00F009000BF1D
:1021400000BF00BF0846406B012108433D494039AC
:1021500048630846406BC007C00F009000BF00BF37
:102160000122D10305200007FFF739F800220121E1
:10217000C90205200007FFF732F8002201214902B9
:1021800005200007FFF72BF80122110305200007A7
:10219000FFF725F801200190022002900020039013
:1021A000022004900020059001A905200007FEF7F9
:1021B00033FF0120800201900020059001A9052035
:1021C0000007FEF729FF4520400201900121090385
:1021D0000198084301900120029000200390022002
:1021E000049001A905200007FEF716FF17481438D0
:1021F0001A49086010204860002118488160802139
:10220000C160002101614161816101214903C16116
:10221000FEF79CFD1148FEF763FE03210F48FEF711
:1022200067FD00BF0D48A064446200BF0022012189
:102230000920FFF75FF80920FFF74AF806B010BD44
:102240000030014040100240000400501C000240D9
:10225000300200207402002000380040B802002044
:10226000FFB583B0044616461D4600200290FF21AC
:102270000531606888420ED1A06800280BD1042186
:102280005120015533460095049A1146204600F02E
:102290005FFA07B0F0BD00BF5020005D012801D1FA
:1022A0000220F6E701215020015500BFFEF79EFFF6
:1022B00007465120005D012802D0022002908BE0E9
:1022C0000498002801D0002E02D10120029083E062
:1022D0000421512001550020606504986063268721
:1022E00066870020E062208660862064606449037F
:1022F000A06888420CD1206800684021884321688A
:10230000086020680068012189038843216808600B
:102310002068006840210840402804D020680068F8
:1023200008432168086007210902E068884222D832
:102330001DE020688068C007C00F00280AD0206810
:10234000007B616B0870606B401C6063608F401E97
:1023500060870CE0FEF74AFFC01BA84202D3681C4E
:10236000002801D1002D02D10320029034E0608FBB
:102370000028DED121E01DE020688068C007C00F82
:1023800000280AD02068C068616B0880606B801CE0
:102390006063608F401E60870CE0FEF727FFC01B64
:1023A000A84202D3681C002801D1002D02D10320CD
:1023B000029011E0608F0028DED13A46294620467F
:1023C00001F0E7FD002801D020206065606D002845
:1023D00001D00120029000BF01215120015500BF12
:1023E00000215020015500BF029852E7F8B504467D
:1023F0000E46154600200090A06800280ED1FF214F
:1024000005316068884209D10421512001552B46CD
:1024100032463146204600F0B1FAF8BD00BF5020E8
:10242000005D012801D10220F7E70121502001556C
:1024300000BF5120005D012802D00220009073E00F
:10244000002E01D0002D02D1012000906CE004216B
:1024500051200155002060656663258765872064EB
:102460006064208660864903A06888420CD1206899
:1024700000684021884321680860206800680121C5
:10248000890388432168086007210902E0688842BF
:1024900012D8E06C40690121890288420CD1608F1A
:1024A000C007C00F002803D1608F4010608703E091
:1024B000608F4010401C60871F48E16CC8621F4855
:1024C000E16C88621E48E16C08630020E16C48639F
:1024D000638F276839460C31626BE06CFEF738FD7C
:1024E000002809D0606D102108436065012000902C
:1024F00001215120015517E0206800684021084063
:10250000402804D0206800680843216808602068DB
:102510004068202108432168486020684068012104
:1025200008432168486000BF00BF002150200155CA
:1025300000BF009871E70000013E00082B3E000834
:10254000D93D00080549884206D105490978002986
:1025500002D00121034A117070470000D801002009
:1025600062000020640000200549884206D1054928
:102570000978002902D00121034A11707047000038
:10258000D80100206200002063000020FFB583B066
:10259000044616461D460020029000BF5020005DF4
:1025A000012802D1022007B0F0BD012150200155C1
:1025B00000BFFEF71BFE074601965120005D012873
:1025C00002D002200290B9E00498002801D0002E29
:1025D00002D101200290B1E00321512001550020D9
:1025E00060650498E0622686668600206063208726
:1025F0006087606420640121C903A06888420CD10F
:1026000020680068402188432168086020680068CD
:10261000012189030843216808602068006840217F
:102620000840402804D020680068084321680860FA
:1026300007210902E068884232D96068002802D088
:102640000198012809D1E06A00882168C860E06A21
:10265000801CE062608E401E60861DE020688068FD
:102660000221084002280AD1E06A00882168C86077
:10267000E06A801CE062608E401E60860CE0FEF71F
:10268000B5FDC01BA84202D3681C002801D1002D53
:1026900002D10320029051E0608E0028DED131E0AB
:1026A0006068002802D00198012809D1E06A00780A
:1026B00021680873E06A401CE062608E401E6086FC
:1026C0001DE0206880680221084002280AD1E06AE3
:1026D000007821680873E06A401CE062608E401E4A
:1026E00060860CE0FEF782FDC01BA84202D3681C86
:1026F000002801D1002D02D1032002901EE0608E3F
:102700000028DED13A462946204601F089FC0028FF
:1027100001D020206065A068002809D100BF00908A
:102720002068C068009020688068009000BF00BFEB
:10273000606D002801D00120029000BF01215120CE
:10274000015500BF00215020015500BF02982AE723
:10275000FFB585B004461D460E9E01200190002065
:10276000009000BF5020005D012802D1022009B076
:10277000F0BD01215020015500BFFEF737FD07468F
:102780005120005D02906068039004950298012832
:102790000DD0FF2105310398884205D1A06800289B
:1027A00002D10298042802D002200090DBE00698B3
:1027B000002804D00798002801D0002D02D1012064
:1027C0000090D0E05120005D042802D00521512066
:1027D0000155002060650798606365872587069826
:1027E000E0626586258600202064606420680068B9
:1027F00040210840402804D0206800680843216830
:10280000086007210902E06888424FD96068002803
:1028100002D00498012809D1E06A00882168C860C4
:10282000E06A801CE062608E401E608637E02068AF
:10283000806802210840022811D1608E00280ED045
:10284000019801280BD1E06A00882168C860E06A1D
:10285000801CE062608E401E60860020019020682F
:102860008068C007C00F00280ED0608F00280BD0F2
:102870002068C068616B0880606B801C6063608F3B
:10288000401E608701200190FEF7B0FCC01BB042E3
:1028900005D3701C002802D00320009063E0608EF6
:1028A0000028C4D1608F0028C1D150E060680028A2
:1028B00002D00498012809D1E06A007821680873E1
:1028C000E06A401CE062608E401E608639E020684D
:1028D000806802210840022811D1608E00280ED0A5
:1028E000019801280BD1E06A007821680873E06A3A
:1028F000401CE062608E401E6086002001902068CF
:102900008068C007C00F00280ED0608F00280BD051
:102910002068007B616B0870606B401C6063608F97
:10292000401E608701200190FEF760FCC01BB04292
:1029300002D3701C002801D1002E02D10320009088
:1029400011E0608E0028C2D1608F0028BFD13A46C6
:102950003146204601F064FB002803D0012000909E
:102960002020606500BF01215120015500BF0021DA
:102970005020015500BF0098F9E60000F0B585B081
:1029800004460E4617461D460020019000BF502009
:10299000005D012802D1022005B0F0BD01215020C8
:1029A000015500BF5120005D0290606803900298BD
:1029B00001280DD0FF2105310398884205D1A06878
:1029C000002802D10298042802D002200190ACE035
:1029D000002E03D0002F01D0002D02D10120019044
:1029E000A3E05120005D042802D0052151200155AB
:1029F00000206065E66225866586676325876587B2
:102A00002064606407210902E068884225D8A06C30
:102A100040690121890288420CD1208EC007C00F75
:102A2000002803D1608E4010608603E0608E401065
:102A3000401C6086E06C40690121890288420CD10B
:102A4000608FC007C00F002803D1608F40106087DF
:102A500003E0608F4010401C60875120005D042817
:102A600006D13548E16CC8623448E16C886205E003
:102A70003348E16CC8623348E16C88623248E16CEB
:102A800008630020E16C4863638F206801460C31C5
:102A9000626BE06C0090FEF75BFA002809D0606D75
:102AA000102108436065012001900121512001554A
:102AB0003BE020684068012108432168486000200D
:102AC000A16CC862A16C8862A16C0863A16C4863A8
:102AD000638E206802460C32E16AA06C0090FEF71B
:102AE00037FA002809D0606D102108436065012085
:102AF000019001215120015517E020680068402114
:102B00000840402804D02068006808432168086015
:102B10002068406820210843216848602068406898
:102B2000022108432168486000BF00BF00215020F7
:102B3000015500BF01982FE7013E00082B3E000819
:102B40001D3E00082B3F0008D93D0008F8B504469B
:102B50000E4615460020009000BF5020005D012861
:102B600001D10220F8BD01215020015500BF5120A4
:102B7000005D012802D00220009075E0002E01D0F7
:102B8000002D02D1012000906EE00321512001555B
:102B900000206065E6622586658660636064206467
:102BA000208760870121C903A06888420CD1206872
:102BB000006840218843216808602068006801217E
:102BC00089030843216808602B48A16CC8622B4820
:102BD000A16C88622A48A16C08630020A16C48633C
:102BE00007210902E068884212D8A06C40690121DF
:102BF000890288420CD1608EC007C00F002803D123
:102C0000608E4010608603E0608E4010401C60863D
:102C1000638E27683A460C32E16AA06CFEF798F999
:102C2000002809D0606D10210843606501200090E4
:102C300001215120015517E020680068402108401B
:102C4000402804D020680068084321680860206894
:102C500040682021084321684860206840680221BC
:102C600008432168486000BF00BF00215020015583
:102C700000BF009876E700000F3E0008AB3E00085A
:102C8000D93D00080349884202D10121024A11704E
:102C900070470000C00000206000002070477047AF
:102CA0007047000070B504462546681E09498842F1
:102CB00001D901200CE0681E074948610321081F63
:102CC00002F0CCF800200449886107200861002048
:102CD00070BD0000FFFFFF0000E000E07047000053
:102CE000FEB50446206805682068C6682068476904
:102CF0000020029001902807000F029002980028FF
:102D00000BD120202840002807D020203040002868
:102D100003D0204601F05BFEFEBD0298002872D071
:102D2000F807C00F002804D1FF20213030400028D0
:102D300078D0E807C00F002808D0FF2001303040CD
:102D4000002803D0A06C01210843A064042028407F
:102D5000002807D0F807C00F002803D0A06C02217C
:102D60000843A06402202840002807D0F807C00FBD
:102D7000002803D0A06C04210843A0640820284048
:102D8000002807D0F807C00F002803D0A06C082146
:102D90000843A064A06C002843D0202028400028CD
:102DA00006D020203040002802D0204601F00FFE3F
:102DB000206840694021084080090190A06C0821EA
:102DC0000840002802D10198002825D0204601F0B3
:102DD000DDFD2068406940210840002818D02068A7
:102DE0004069884321684861206C00280CD0254840
:102DF000216C4863206CFDF73FFF002811D0206C48
:102E0000416B88470DE00DE02046FFF767FF08E0C3
:102E10002046FFF763FF04E02046FFF75FFF002036
:102E2000A06479E710202840002811D010203040FD
:102E300000280DD000BF002000902068006800909E
:102E400020684068009000BF00BF204600F01CF8DA
:102E500080202840002807D080203040002803D060
:102E6000204601F0CBFE57E740202840002807D03D
:102E700040203040002803D0204601F098FD4BE769
:102E800000BF49E779490008704710B50446002C97
:102E900001D1012010BDA069002800D000E000BFD2
:102EA0004520005D002805D1002144200155204621
:102EB00000F030F82421452001552068C068012128
:102EC000490388432168C860204601F0C5FD206A97
:102ED000002802D0204601F033FD20680069092156
:102EE000C902884321680861206840690821884335
:102EF000216848612068C0680121490308432168AE
:102F0000C8600020A06420214520015546200155BD
:102F10000020BFE710B586B00446142101A8FDF7D4
:102F200018F92249206888423ED100BF2048006835
:102F30000121890308431E490860084600680121F1
:102F400089030840009000BF00BF00BF1848403808
:102F5000406B022108431649403948630846406BDC
:102F600002210840009000BF00BF80200190022095
:102F7000029001200390022004900020059001A9F6
:102F80000C48FEF749F8FF20013001900820059019
:102F900001A90848FEF740F8012211461B20FEF760
:102FA000A9F91B20FEF794F906B010BD00380140C6
:102FB00040100240000400507047704700BFFEE719
:102FC00010B51248407C012803D010484038FEF765
:102FD00079FE012240210E48FEF701F90B484038E6
:102FE0000068006840218843084940390968086042
:102FF000002106484038816000680068212189026C
:103000008843024940390968086010BD1802002051
:1030100000040050FEB506460C461746002E12D09E
:10302000002F10D03548407C01280CD13448407C1A
:10303000012808D133480068844204D2314800682E
:10304000001BB84201D20120FEBD0B216846017071
:103050002002010E684641702004010E684681700E
:10306000C470FF210171002124484038816000684C
:103070000068212189028843204940390968086095
:10308000002240212048FEF7AAF864230522694661
:103090001A484038FFF77AFA0546002D06D001227B
:1030A00040211948FEF79BF82846CDE713484038E1
:1030B0000068006840218843104940390968086069
:1030C000012189020D484038816000680068212193
:1030D000890288430121890240180849403909685A
:1030E00008603A46314605484038FFF77FF9054603
:1030F000002D01D0FFF764FF2846A5E71802002045
:10310000000100205C0000200004005002468A42BA
:1031100001D90846704790B2FCE7FFB583B00E4670
:1031200017461C4602AA30460F9900F0EBFB0546F5
:10313000002000900190002D03D00E980019F02877
:1031400006D9082269460398FCF7EAFF07B0F0BDEC
:1031500069460D98088068460E9941802946794352
:10316000681E0C9A5043081881B268468180C4805A
:10317000018880880818F02803D9002168468180DA
:10318000C180082269460398FCF7CAFF00BFDDE74B
:10319000F8B50446204600F03FFA00280FD0002082
:1031A00000906588E688AD196D1EABB22588A688AB
:1031B000AD196D1EAAB26188208801F0B1F8F8BD82
:1031C000F8B504460D461646002C05D02089002887
:1031D00002D06089002800D1F8BD20894019F0286C
:1031E00003D860898019F02800D9F5E72089618922
:1031F0004843470060898019401E83B220894019E6
:10320000401E82B23146284601F02CF801F045F804
:10321000216808460830394600F0AEFB01F078F826
:1032200000BFD9E7F8B504460D46002C00D1F8BD23
:10323000284600F0F1F9002803D1204600F075F887
:10324000F5E76888E988401886B268880090238985
:1032500000221146204600F00FF86089B04209DDD7
:103260006089801B80B2009023893246002120466D
:1032700000F002F800BFDAE7F0B585B004460D466D
:1032800016461F46002C0DD0002F0BD00A980028A0
:1032900008D0E8192189884204D80A983018618931
:1032A000884201D905B0F0BD7804000C02900A985C
:1032B0003018401E83B2E819401E82B231462846BB
:1032C00000F0D0FF00F0E9FF002D12D12089B842B4
:1032D0000FD1208970434000019020890A9948430A
:1032E00040000090226801995018009900F044FBBA
:1032F00017E00020039010E003983018218948431C
:10330000401940000190226801995018029900F07C
:1033100033FB0398401C80B203900A9903988842BB
:10332000EADB00F0F5FF00BFBCE710B50446002C57
:1033300000D110BD01F090F900F0AFFF6168206886
:1033400000F01AFB00F0E4FF00BFF2E7F3B585B030
:103350000F4604AA1F49384600F0D4FA054600205B
:1033600002900390002D01D0032D06D9082202A956
:103370000598FCF7D5FE07B0F0BD2E20684386B255
:10338000F020801BC003010C68460181412141816E
:1033900086815D21C181002413E0694609892E20C0
:1033A0006043081880B2019069464A8904A9095D02
:1033B0000C235943084BC8180199FFF701FF601C03
:1033C000C4B2AC42E9DB082202A90598FCF7A8FECA
:1033D00000BFD0E74E0200007C540008FFB583B068
:1033E0000D461E46002D07D005980A2804D30C99D7
:1033F0000F984018F02801D907B0F0BD02AA109923
:10340000039800F07FFA0746002415E00D98301865
:1034100060430E99401880B2019001988019F028FD
:1034200008D802A9095D0C22514348190F9A019945
:10343000FFF7C6FE601CC4B2BC42E7DB00BFDBE79F
:10344000FFB587B012ACF0CC0397029601950094BB
:10345000119B109A089905A8FFF75FFE05A800F0D8
:10346000DBF8002808D001A8F0C011980090109B4C
:1034700008A807C8FFF7B2FF082205A90798FCF7BC
:103480004FFE0BB0F0BDFFB58BB00C46199F179ED9
:10349000169D0AAA3946204600F034FA099014997C
:1034A00009984143401E6843081880B20890089864
:1034B0004008B04204D208984008301A80B200E0B8
:1034C000002007901899079803AA83C202951599BE
:1034D00014980191009021460E9B0D9A0B98FFF7CE
:1034E000AFFF0FB0F0BD000000B587B0142102A8F7
:1034F000FCF72FFE00BF1248406B02210843104921
:1035000048630846406B02210840019000BF00BF9D
:1035100004200290002003900120049000200590D8
:1035200002A90848FDF778FD0120074908700749FE
:103530000870FDF75BFE0649086007B000BD00009B
:10354000001002400004005014000020150000206C
:103550001800002070B5FDF749FE0546042111480A
:10356000FDF734FE012800D100E0002004460E489B
:103570000078844203D00C4804700C4805600B4866
:103580000068281A1E2801D2002070BD0848007863
:10359000844205D006480470002C01D10120F4E7D4
:1035A0000020F2E700040050150000201800002061
:1035B0001400002010B515480078030001F040FC0D
:1035C000061404080C10151402201049087010E0AD
:1035D00003200E4908700CE004200C49087008E034
:1035E00005200A49087004E000BF0120074908705F
:1035F00000BF00BF01200649087000F01DF900F06F
:1036000037F9FF200349087010BD00000C000020AE
:103610000D0000203A0000200146002907D08888CC
:10362000002804D0C888002801D00120704700205D
:10363000FCE700001CB5044631480078002820D182
:10364000304909680C2251432F4A8818FFF76DFE54
:103650002C480068401C2B4908602C4804802146F7
:103660006846FFF773FE082269462948FCF758FDB3
:103670002748FFF7D1FF274908700120204908702B
:103680002FE022480088844216D022480078002883
:1036900002D01F48FFF77CFD1C4804802146684685
:1036A000FFF754FE082269461948FCF739FD18480F
:1036B000FFF7B2FF17490870164A1278002A01D0A6
:1036C000134A00E0002211460E4A12680C235A43A6
:1036D0000D4BD018FFF7A6FD0A480068401C0949A9
:1036E0000860084800681D2802D3002005490860CA
:1036F0000122510205200007FDF771FD1CBD0000ED
:103700002600002028000020E44F00082C000020A4
:103710002E0000203600002010B53E48007803003F
:1037200001F08EFB06040E33425969683A48FFF7F0
:10373000FCFD0122510205200007FDF750FD67E066
:103740003648407C002804D03449488AFFF772FF8D
:103750001AE000F071F8324909680C225143314AED
:103760008818FFF7E2FD2E480068401C2C490860CD
:10377000084600682B2801D300200860012251026E
:1037800005200007FDF72BFD42E02748FFF7CDFDA0
:1037900000F06EF8012000F087F9012251020520A7
:1037A0000007FDF71CFD33E01C49087C00F02CF9F4
:1037B0000446032C00DB00240C2161431B4A8818BB
:1037C000FFF7B3FD1A4804700122510205200007DB
:1037D000FDF705FD1CE01748FFF7A7FD00F048F8CE
:1037E000012000F01DF90122510205200007FDF71C
:1037F000F6FC0DE000BF00F01FF8002000F05CFDBB
:1038000000220121490205200007FDF7E8FC00BF66
:1038100000BF10BD0C0000204C51000870010020BA
:103820001000002088510008405100086451000831
:103830003A00002058510008002008490870084943
:103840000860401E0749088000200749088048801A
:103850008880C88005490870704700002600002055
:10386000280000202C0000202E0000203600002020
:10387000002015E00021C9434200114B995200215C
:10388000C200104B9952C200D2185180C200D21807
:103890009180C200D218D1800B4A1154411CC8B289
:1038A0000828E7D30021C943084A11800021084AAB
:1038B000118051809180D180064A117070470000BC
:1038C00088010020980100204400002038000020DA
:1038D0004C00002054000020002800D17047002137
:1038E00007E0F022425400230246083253544A1C97
:1038F000D1B20829F5D30022027442744282426197
:1039000000BFEBE7F8B505460E461446002C01D182
:103910000020F8BDB54200DD35461648854200D985
:103920000546642D14D364212846FCF7E3FB207080
:103930000A212846FCF7DEFB07460A21FCF7DAFBE2
:1039400061700A212846FCF7D5FBA1700320E0E74F
:103950000A2D0BD30A212846FCF7CCFB20700A2144
:103960002846FCF7C7FB61700220D2E725700120D2
:10397000CFE70000E703000070B504460D46294676
:10398000204600F0EFFE002801D0FCF7FFFB70BDE1
:1039900070B5FCF7DFFF0446002C08D03520005D31
:1039A000002804D01649A06B0968884200D170BD78
:1039B000002014494874002514E0605D002801D0FF
:1039C0000F2100E0F0210F4A5155214628314A5D70
:1039D0000C4908314A55002802D00121094A517486
:1039E000681CC5B2082DE8D33420005D0549087471
:1039F000A06B48610249A06B086000BFD7E70000D8
:103A0000400000207001002001462D2901D2002035
:103A100070472D2901D10120FAE70220F8E70000C4
:103A200010B588B00446002C05D119480088194902
:103A30000988884229D0002C06D117480078002830
:103A400002D01648FFF7A4FB15483C21462200236C
:103A5000029303920491059042201B210A23114AEC
:103A6000009101900A48018806A8FFF70CFD082282
:103A700006A90A48FCF754FB0848FFF7CDFD0649A4
:103A80000870034800880349088008B010BD000092
:103A90002400002038000020540000204C000020AA
:103AA000E70300000454000870B588B00546002400
:103AB0003DE02348065D002D04D160002149085AED
:103AC000B04232D0002D08D11F48005D002804D03C
:103AD000E1001E4A8818FFF75BFB8C22A0001C49FE
:103AE00040184088A1001A4B595A002302930592AE
:103AF000039104901C2010210A23164A0091019082
:103B0000314606A8FFF7BFFCE100104A88180822DA
:103B100006A9FCF705FBE1000C4A8818FFF77CFDBD
:103B200009490855600007490E52601CC4B2082CB0
:103B3000BFD30348083840690749086008B070BD22
:103B40007801002088010020440000209801002016
:103B5000F45400088C5300083C0000200022002888
:103B600000D17047002105E0034608335B5C9A18DA
:103B70004B1CD9B20829F7D3034B9A4200D91A46F5
:103B8000428200BFEDE700004E02000070B504461F
:103B9000002C22D01548007800280AD101201349B2
:103BA0000870FDF723FB12490860002011490880C6
:103BB0001AE0FDF71BFB0E490968451A0E49284615
:103BC000FCF798FA0B490880084600880B498842A0
:103BD00002D908460749088006E00020034908701A
:103BE000034908600349088070BD00001C000020E4
:103BF000200000202400002060EA0000E70300000D
:103C00007047704704484068072252031040410B38
:103C10008800024A1058704700100240784F000890
:103C20007CB504462068006840218843216808600C
:103C3000182123480068FCF75DFA05467D21C9007C
:103C4000FCF758FA642148430190206840684021FD
:103C500088432168486000BF0198002804D1606D46
:103C600040210843606508E00198401E01902068EB
:103C70004068402108400028EED100BFFDF7B6FAA9
:103C800005466423002280210090204600F07CFA43
:103C9000002801D040206065FDF7A8FA054664239E
:103CA0000022032149020090204600F0EFF900288D
:103CB00001D0402060650721512001557CBD0000E6
:103CC000000000207CB50446182142480068FCF73B
:103CD00011FA05467D21C900FCF70CFA642148431E
:103CE000019020684068802188432168486000BFB7
:103CF0000198002804D1606D40210843606508E008
:103D00000198401E019020684068802108400028EA
:103D1000EED100BFFDF76AFA05462A466421204627
:103D200000F07EF9002801D040206065206800681E
:103D30004021884321680860FDF758FA054664234E
:103D40000022032149020090204600F09FF900283C
:103D500001D040206065206840684021084000286C
:103D600034D02068406888432168486000BF0198CB
:103D7000002804D1606D40210843606508E0019887
:103D8000401E019020684068402108400028EED184
:103D900000BFFDF72BFA0546642300228021009026
:103DA000204600F0F1F9002801D040206065FDF7C1
:103DB0001DFA054664230022032149020090204693
:103DC00000F064F9002801D04020606507215120EF
:103DD00001557CBD0000002070B505466C6A206866
:103DE00040688008800021684860606D10210843A9
:103DF00060650121512001552046FEF74FF870BD46
:103E000070B50446656A2846FEF7AEFB70BD70B516
:103E10000446656A2846FEF741FF70BD70B504464A
:103E2000656A2846FEF73CFF70BD70B505466C6AB2
:103E3000FDF7DCF9064628680068202108402028A4
:103E40002ED020684068884321684860A068002818
:103E50000BD1FF2105316068884206D12068406897
:103E6000800880002168486005E0206840684008BC
:103E700040002168486032466421204600F089F8FD
:103E8000002801D02020606500206087012151209A
:103E90000155606D002803D02046FDF7FFFF70BD7F
:103EA0002046FEF74FFB00BFF9E7F8B505466C6A00
:103EB000FDF79CF906462868006820210840202864
:103EC0002ED0206840688843216848602068406898
:103ED000022188432168486032466421204600F070
:103EE0009FF8002803D0606D202108436065A0681A
:103EF000002809D100BF00902068C06800902068A9
:103F00008068009000BF00BF002060860121512022
:103F10000155606D002803D02046FDF7BFFFF8BDB6
:103F20002046FEF7AFFE00BFF9E770B505466C6AA4
:103F3000FDF75CF906462868006820210840202823
:103F400022D0206840688843216848603246642156
:103F5000204600F065F8002803D0606D202108435A
:103F60006065206840688008800021684860002003
:103F700060866087012151200155606D002803D0C3
:103F80002046FDF78BFF70BD2046FEF788FE00BF80
:103F9000F9E7F8B504460E461546FF21053160687D
:103FA00088420ED10121C903A068884203D049117B
:103FB000A068884205D120680068402188432168B4
:103FC00008603346002280212046009500F0DCF88E
:103FD000002805D0606D2021084360650320F8BDEE
:103FE000FF2105316068884218D10121C903A0680A
:103FF000884203D04911A06888420FD1334600227D
:10400000032149022046009500F040F8002805D021
:10401000606D2021084360650320E0E70020DEE7B3
:10402000F8B504460E461546334600220321C90260
:104030002046009500F02AF8002805D0606D202168
:10404000084360650320F8BD3346002280212046E6
:10405000009500F099F8002805D0606D20210843F4
:1040600060650320EFE73346002203214902204622
:10407000009500F00BF8002805D0606D2021084362
:1040800060650320DFE70020DDE70000F0B585B0C4
:1040900004460D4616461F4600200090FDF7A6F880
:1040A0000A99401A381A0390FDF7A0F80290206888
:1040B0000C3001903348006823214843000D0399D8
:1040C0004843049056E003204002854206D1002E6A
:1040D00004D101980178009168460078781C002886
:1040E00048D0FDF783F80299411A0398814202D221
:1040F0000398002837D120684068E0218843216870
:104100004860FF210531606888420ED10121C90352
:10411000A068884203D04911A068884205D1206870
:104120000068402188432168086001214903606AD2
:1041300088420DD100BF206800688843216808606C
:10414000206800680121490308432168086000BF16
:1041500001215120015500BF00215020015500BF11
:10416000032005B0F0BD0498002800D10390049806
:10417000401E0490206880682840B042A3D10020EF
:10418000EFE7000000000020FFB583B004460D46B5
:104190001E46FDF72BF80C99401A371AFDF726F842
:1041A00001902F4800684001000D7843029049E0DB
:1041B000701C002846D0FDF719F80199401AB84242
:1041C00001D2002F37D120684068E0218843216860
:1041D0004860FF210531606888420ED10121C90382
:1041E000A068884203D04911A068884205D12068A0
:1041F0000068402188432168086001214903606A02
:1042000088420DD100BF206800688843216808609B
:10421000206800680121490308432168086000BF45
:1042200001215120015500BF00215020015500BF40
:10423000032007B0F0BD0298002800D100270298A3
:10424000401E0290206880682840A84201D10121C8
:1042500000E0002105988142AAD10020E9E7000092
:1042600000000020F8B504460D4616461F462A20D9
:1042700000F0FAF9A0B200F0BFF9B0B200F0BCF95A
:104280002B2000F0F1F9A8B200F0B6F9B8B200F0B6
:10429000B3F92C2000F0E8F9F8BD10B50022012197
:1042A000C90305200007FCF79AFF0122D10205206F
:1042B0000007FCF794FF10BDF8B50546002407E0A1
:1042C0002812124908550A46601C1554A01C84B2D5
:1042D000802CF5D3E1267602F7097006400E009097
:1042E00000F0BAF9FFF7D9FF04E08021074800F099
:1042F000C9F97F1E002FF8D10098002803D0034889
:10430000009900F0BFF900F003F8F8BDFC020020AE
:1043100010B50122D10305200007FCF760FF10BD96
:10432000FFB583B005460E461746F02D06D2F02E97
:1043300004D2AF4202DB0698B04201DA07B0F0BD0A
:10434000F02F00D3EF270698F02801D3EF20069036
:1043500000240AE00C9800121B4908550C98C1B2C1
:10436000194A601C1154A01C84B2802CF2D3781B13
:10437000401C0699891B491C484302900298400042
:10438000C009019002988006400E00903A463146DE
:104390002846069BFFF766FFFFF77FFF06E08021B8
:1043A000094800F06FF90198401E0190019800281B
:1043B000F5D10098002803D00348009900F062F975
:1043C000FFF7A6FF00BFB9E7FC02002010B50122ED
:1043D000510205200007FCF702FF0122D10305204E
:1043E0000007FCF7FCFE00220121C902052000079E
:1043F000FCF7F5FE0122110305200007FCF7EFFE94
:104400000520FCF7F3FD0022012109030520000728
:10441000FCF7E5FE1420FCF7E9FD0122110305205D
:104420000007FCF7DCFE7820FCF7E0FD012000F03F
:104430001BF97820FCF7DAFD112000F015F978203F
:10444000FCF7D4FD3A2000F00FF9552000F013F9E5
:10445000B22000F009F90C2000F00DF90C2000F05A
:104460000AF9002000F007F9332000F004F93320A6
:1044700000F001F9B72000F0F7F8352000F0FBF864
:10448000BB2000F0F1F8322000F0F5F8C22000F077
:10449000EBF8012000F0EFF8C32000F0E5F8192058
:1044A00000F0E9F8C42000F0DFF8202000F0E3F885
:1044B000C62000F0D9F80F2000F0DDF8D02000F081
:1044C000D3F8A42000F0D7F8A12000F0D4F8E02021
:1044D00000F0CAF8D02000F0CEF8082000F0CBF8A9
:1044E0000E2000F0C8F8092000F0C5F8092000F0FF
:1044F000C2F8052000F0BFF8312000F0BCF83320EE
:1045000000F0B9F8482000F0B6F8172000F0B3F832
:10451000142000F0B0F8152000F0ADF8312000F0C4
:10452000AAF8342000F0A7F8E12000F09DF8D02090
:1045300000F0A1F8082000F09EF80E2000F09BF893
:10454000092000F098F8092000F095F8152000F0F7
:1045500092F8312000F08FF8332000F08CF84820DA
:1045600000F089F8172000F086F8142000F083F896
:10457000152000F080F8312000F07DF8342000F0A4
:104580007AF8212000F070F8362000F06DF86020F5
:1045900000F071F800F060F8292000F065F81420B0
:1045A000FCF724FD10BD000013B50C4600220121CC
:1045B000C90305200007FCF712FE012C06D10122D9
:1045C000D10205200007FCF70AFE06E000220121C7
:1045D000C90205200007FCF702FE64230122694698
:1045E0000448FDF7D3FF0122D10305200007FCF7A3
:1045F000F6FD1CBDC000002038B5044621126846F7
:1046000001704470022100F001F838BD70B5054614
:104610000C46002D01D0002C00D170BD00220121DC
:10462000C90305200007FCF7DAFD0122D1020520AD
:104630000007FCF7D4FD7D23DB0022462946054810
:10464000FDF7A4FF0122D10305200007FCF7C7FDF9
:1046500000BFE2E7C000002010B5EF231A4600219A
:104660000846FFF7FFFD10BD10B5044600212046A7
:10467000FFF79AFF10BD10B5044601212046FFF751
:1046800093FF10BD70B504460D46002C01D0002DDF
:1046900000D170BD2946204600F018F8002804D14A
:1046A00000F03AF8002800D1F3E70120054908702E
:1046B0007D23DB002A4621460348FDF767FF00BF44
:1046C000E7E7000060000020C000002070B504464D
:1046D0000D46002C05D0002D03D00C480078002892
:1046E00001D1012070BD00200849087008490870F8
:1046F0002A4621460748FEF729FA002803D0012060
:1047000002490870EEE70020ECE70000600000209E
:1047100061000020C000002010B5FCF767FD0446D2
:104720000EE0FCF763FD001B7D21C900884207D91C
:104730000948FDF7C7FA01200849087008490870C0
:10474000064800780028ECD005480078002801D001
:10475000012010BD0020FCE7C00000206000002008
:1047600061000020F0B585B005460F460497002F84
:1047700008D057480068854204D255480068401B5D
:10478000B84206D2002F02D0012005B0F0BD0020B3
:10479000FBE797E0012109030498FEF7B7FC0390BB
:1047A000039844080398001B86B2002002900190F1
:1047B000484908704849087048490870012048492C
:1047C000087029464748039AFEF724FC002813D0B6
:1047D00000204349087029464248039A00F09EFA97
:1047E00021464048FFF74EFF002E64D03D4908198E
:1047F0003146FFF747FF5EE0FCF7F8FC009017E05A
:1048000034480078002808D00298002805D12146B5
:104810003448FFF737FF01200290FCF7E7FC0099CE
:10482000401A7D21C900884202D90120019003E08D
:10483000294800780028E3D000BF284800780028E5
:1048400001D001200190FEF7BBFB00202449087035
:104850000198002821D00298002810D1294621482B
:10486000039A00F05BFA21461E48FFF70BFF002E6B
:1048700021D01C4908193146FFF704FF1BE0002E28
:1048800019D02919174A1019324600F047FA15496C
:1048900008193146FFF7F6FE0DE00298002803D113
:1048A00021461048FFF7EEFE002E04D00D490819EE
:1048B0003146FFF7E7FE03982D1803990498401A34
:1048C000049000BF0498002800D063E700BF5CE7B5
:1048D0005C000020630000206400002065000020D0
:1048E000620000207C030020704710B5FCF784FCB8
:1048F00010BD00000E484068000C00040D49898876
:1049000001225203114389B208430949486008460D
:1049100040680949084007498031098EC905C9091D
:10492000084303494860C803044988607047000091
:1049300000100240000FFF1FFFFF00FE00ED00E02F
:104940004022016A1140002915D00168496992018D
:104950009143426A11430268516101221203416A84
:10496000914208D101684969032252039143826A46
:10497000114302685161704770B505466C6A0020AA
:10498000608760862046FEF7A9F970BD0168C96896
:10499000FF22213291430268D160016849694908C8
:1049A000490002685161202246210A54704710B51F
:1049B00004462068C068402188432168C8602021DF
:1049C000452001552046FEF7F8FA002010BD70B5CD
:1049D00004464620005D22283BD101210903A0683E
:1049E00088420CD12069002809D1656B2068406895
:1049F000C005C00D2880606B801C606306E02068E5
:104A00004068C1B2626B501C60631170608F401EC1
:104A100080B2608700281AD12068C06820218843AE
:104A20002168C8602068C068FF210131884321687F
:104A3000C860206840694008400021684861202122
:104A4000462001552046FEF7B7FA002070BD002031
:104A5000FCE70220FAE70000FEB504462068006982
:104A6000012149038843E1680843216808612169FD
:104A7000A06808436169084302902068C0685E49E5
:104A80000840029908432168C860E06902902068E4
:104A900040690121C902884302990843216848619D
:104AA00020684069032109028843A16908432168FD
:104AB00048610121C902E06988424ED1FCF714FD2A
:104AC00005466268510019226A431046FBF712FB43
:104AD00006466421FBF70EFB0701626851001922AC
:104AE0006A431046FBF706FB06466268510019222E
:104AF0006A431046FBF7FEFA64210090FBF7FAFACE
:104B000064214843301AC00032300190FBF7F2FABA
:104B1000F821084040003F186268510019226A439A
:104B20001046FBF7E7FA06466268510019226A430D
:104B30001046FBF7DFFA64210090FBF7DBFA6421F3
:104B40004843301AC00032300190FBF7D3FA4007D7
:104B5000400F3818216888604CE0FCF7C5FC05461A
:104B60006268910019226A431046FBF7C3FA0646B1
:104B70006421FBF7BFFA07016268910019226A43BA
:104B80001046FBF7B7FA06466268910019226A439D
:104B90001046FBF7AFFA64210090FBF7ABFA6421F3
:104BA0004843301A000132300190FBF7A3FAF0219C
:104BB00008403F186268910019226A431046FBF7CB
:104BC00099FA06466268910019226A431046FBF77B
:104BD00091FA64210090FBF78DFA64214843301A62
:104BE000000132300190FBF785FA0007000F3818FA
:104BF00021688860FEBD0000F3E9FFFF10B50146A3
:104C00004520405C212830D1012424038868A0423B
:104C10000ED1086900280BD1CA6A0868006810889C
:104C2000C005C00D0C686060C86A801CC86208E0DE
:104C3000CB6A0868006818780C686060C86A401C15
:104C4000C862488E401E80B2488600280BD1086892
:104C5000C0688024A0430C68E0600868C0684024F5
:104C600020430C68E060002010BD0220FCE700003B
:104C700010B50248FEF734F810BD000074000020A3
:104C80000246D1B20120C005142904D31F2902D83D
:104C900001238B40184601231B06984200D9184671
:104CA0007047000010B5184818490860FF2005300B
:104CB000486000211548816007210902C160002178
:104CC000016141610121490281610821C161002125
:104CD0000162416207218162FDF704F9002801D0D9
:104CE000FBF754FA012240210948FCF778FA00F05A
:104CF00049F80849088000F069F80446FFF7C0FF4A
:104D00000549086010BD000000300140D8010020B6
:104D100000040050580000205C0000207CB50546CF
:104D20000C461646002D01D0002E00D17CBD0B2173
:104D3000684601702002010E684641702004010E91
:104D400068468170C470FF210171002240210B4828
:104D5000FCF745FA6423052269460948FDF716FC6D
:104D60006423324629460648FDF77AFA012240219B
:104D70000248FCF734FA00BFD8E7000000040050F6
:104D8000D801002010B50024002240210E48FCF775
:104D900026FA902000F044F8002000F041F80020AE
:104DA00000F03EF8002000F03BF8FF2000F038F85B
:104DB0000402FF2000F034F804430122402102489D
:104DC000FCF70DFA204610BD000400503EB500244B
:104DD00010A000680290002240210F48FCF7FFF964
:104DE0006420042301AA02A900900C48FDF7B0FC3E
:104DF000012240210848FCF7F2F968464079040492
:104E000068468079000204436846C079044320461E
:104E10003EBD00009FFFFFFF00040050D8010020AE
:104E200001B582B06420012301AA02A900900348C1
:104E3000FDF78EFC684600790EBD0000D801002009
:104E400030B47446641E2578641CAB4204D3635DA1
:104E50005B00E31830BC18471D46F8E710B5002882
:104E600019DB1A4A03231B02D21883089B00D2586D
:104E70008307DC0EFF23A3409A438B071B0E840796
:104E8000E40EA3401A43114B032424021B19840887
:104E9000A4001A5118E00E4A03071B0F083B9B0899
:104EA0009B00D2588307DC0EFF23A3409A438B0755
:104EB0001B0E8407E40EA3401A43054B0407240F7E
:104EC000083CA408A4001A5110BD000000E100E055
:104ED0001CED00E002E008C8121F08C1002AFAD148
:104EE00070477047002001E001C1121F002AFBD16A
:104EF0007047FCF78DF9FBF711FEFFF7D3FEFBF7C8
:104F000047FEFBF745F9FBF7E3FDFFF75FFA01E02A
:104F1000FBF776FBFCE7000000000000000000004B
:104F20000000000000000000000000000000000081
:104F3000000000000000000001000000020000006E
:104F4000030000000400000006000000070000004D
:104F50000800000009000000000000000000000040
:104F6000000000000000000001000000020000003E
:104F7000030000000400000000093D0000127A0058
:104F80000024F4004086510100366E0100093D0006
:104F900000093D0000093D00001400500100000020
:104FA000001400500200000000140050080000002F
:104FB000000000500200000000000050040000004B
:104FC0000004005002000000585A5C5E000101021B
:104FD00000020203010200020406010400040507A6
:104FE000010400040020000000C20100F000F000F5
:104FF00000F0010000C20100F000F00000C003005A
:1050000000C20100F000F0000090050000C20100A5
:10501000F000F0000060070000C20100F000F000A6
:105020000030090000C20100F000F00000000B0099
:1050300000C20100F000F00000D00C0000C201002E
:10504000F000F00000A00E0000C20100F000F0002F
:105050000070100000C20100F000F00000401200DB
:1050600000C20100F000F0000010140000C20100B6
:10507000F000F00000E0150000C20100F000F000B8
:1050800000B0170000C20100F000F000008019001D
:1050900000C20100F000F00000501B0000C201003F
:1050A000F000F00000201D0000C20100F000F00040
:1050B00000F01E0000C20100F000F00000C020005F
:1050C00000C20100F000F0000090220000C20100C8
:1050D000F000F0000060240000C20100F000F000C9
:1050E0000030260000C20100F000F000000028009F
:1050F00000C20100F000F00000D0290000C2010051
:10510000F000F00000A02B0000C20100F000F00051
:1051100000702D0000C20100F000F00000402F00E0
:1051200000C20100F000F0000010310000C20100D8
:10513000F000F00000E0320000C20100F000F000DA
:1051400000B0340000C20100F000F0000080360022
:1051500000C20100F000F0000050380000C2010061
:10516000F000F00000203A0000C20100F000F00062
:1051700000F03B0000C20100F000F00000C03D0064
:1051800000C20100F000F00000903F0000C20100EA
:10519000F000F0000060410000C20100F000F000EB
:1051A0000030430000C20100F000F00000A0480001
:1051B00000C20100F000F00000704A0000C20100CF
:1051C000F000F00000104E0000C20100F000F000FE
:1051D00000E04F0000C20100F000F00000B05100FC
:1051E00000C20100F000F0000080530000C2010086
:1051F000F000F0000050550000C20100F000F00087
:105200000020570000C20100F000F00000F058003C
:1052100000C20100F000F00000C05A0000C201000E
:10522000F000F00000905C0000C20100F000F0000F
:1052300000605E0000C20100F000F000003060007D
:1052400000C20100F000F0000000620000C2010096
:10525000F000F00000D0630000C20100F000F00098
:1052600000A0650000C20100F000F00000706700BF
:1052700000C20100F000F0000040690000C201001F
:10528000F000F00000106B0000C20100F000F00020
:1052900000106B0000C20100F000F0000040690047
:1052A00000C20100F000F0000070670000C20100C1
:1052B000F000F00000A0650000C20100F000F00066
:1052C00000D0630000C20100F000F00000006200A6
:1052D00000C20100F000F0000030600000C20100D8
:1052E000F000F00000605E0000C20100F000F0007D
:1052F00000905C0000C20100F000F00000C05A0005
:1053000000C20100F000F00000F0580000C20100EF
:10531000F000F0000020570000C20100F000F00093
:105320000050550000C20100F000F0000080530062
:1053300000C20100F000F00000B0510000C2010006
:10534000F000F00000E04F0000C20100F000F000AB
:1053500000104E0000C20100F000F00000704A0092
:1053600000C20100F000F00000A0480000C20100EF
:10537000F000F0000030430000C20100F000F00037
:105380000060410000C20100F000F00000B06E00BB
:105390008003000010001C0000C06E0080030000AD
:1053A00010001C0000D06E008003000010001C00E4
:1053B00000E06E008003000010001C0000F06E0092
:1053C0008003000010001C0000006F00800300003C
:1053D00010001C0000106F008003000010001C0073
:1053E00000206F008003000010001C0000306F00E0
:1053F0008003000010001C0000406F0080030000CC
:1054000010001C0000506F00EC0D00001B0042005B
:1054100000606F00EC0D00001B00420000706F0088
:10542000EC0D00001B00420000806F00EC0D00003E
:105430001B00420000906F00EC0D00001B004200BA
:1054400000A06F00EC0D00001B00420000B06F00D8
:10545000EC0D00001B00420000C06F00EC0D0000CE
:105460001B00420000D06F00EC0D00001B0042004A
:1054700000E06F00EC0D00001B00420000F06F0028
:105480006C2100002E005D00002070006C210000E7
:105490002E005D00005070006C2100002E005D00A9
:1054A000008070006C2100002E005D0000B07000D4
:1054B0006C2100002E005D0000E070006C210000F7
:1054C0002E005D00001071006C2100002E005D00B8
:1054D000004071006C2100002E005D000070710022
:1054E0006C2100002E005D0000A071006C21000006
:1054F0002E005D0030001700A4001700300053009C
:10550000A400530030008F00A4008F003000CB00B7
:10551000A400CB000024F40080B14F0100366E01DE
:1055200000366E0100093D0000127A000024F400EC
:105530004086510100366E010200000003000000A9
:105540000200000002000000685500080000002072
:1055500074000000D44E0008DC55000874000020E0
:105560000C170000E44E000800127A000000000052
:105570000000000000010000000000000101000028
:10558000000000000000000000000000000000001B
:1055900000000000FFFF000000000000000000000D
:1055A000FFFFFF00000000000000000000000000FE
:1055B00000000000000000000000000000000000EB
:1055C000000000000000800001000000000000005A
:0C55D000000000000400000001000000CA
:04000005080000C12E
:00000001FF
